{
  "contractName": "GameManager",
  "abi": [
    {
      "constant": true,
      "inputs": [
        {
          "name": "",
          "type": "uint256"
        }
      ],
      "name": "games",
      "outputs": [
        {
          "name": "",
          "type": "address"
        }
      ],
      "payable": false,
      "stateMutability": "view",
      "type": "function"
    },
    {
      "constant": true,
      "inputs": [
        {
          "name": "",
          "type": "uint256"
        }
      ],
      "name": "players",
      "outputs": [
        {
          "name": "",
          "type": "address"
        }
      ],
      "payable": false,
      "stateMutability": "view",
      "type": "function"
    },
    {
      "inputs": [],
      "payable": false,
      "stateMutability": "nonpayable",
      "type": "constructor"
    },
    {
      "anonymous": false,
      "inputs": [
        {
          "indexed": false,
          "name": "gameAddress",
          "type": "address"
        }
      ],
      "name": "playerJoinedGame",
      "type": "event"
    },
    {
      "constant": true,
      "inputs": [],
      "name": "askForGame",
      "outputs": [
        {
          "name": "",
          "type": "address[]"
        }
      ],
      "payable": false,
      "stateMutability": "view",
      "type": "function"
    },
    {
      "constant": false,
      "inputs": [
        {
          "name": "nickName",
          "type": "string"
        }
      ],
      "name": "joinGame",
      "outputs": [],
      "payable": false,
      "stateMutability": "nonpayable",
      "type": "function"
    }
  ],
  "bytecode": "0x608060405234801561001057600080fd5b5061265c806100206000396000f3fe608060405260043610610062576000357c0100000000000000000000000000000000000000000000000000000000900463ffffffff168063117a5b90146100675780633d536a2e146100e25780635e9d1cd2146101aa578063f71d96cb14610216575b600080fd5b34801561007357600080fd5b506100a06004803603602081101561008a57600080fd5b8101908080359060200190929190505050610291565b604051808273ffffffffffffffffffffffffffffffffffffffff1673ffffffffffffffffffffffffffffffffffffffff16815260200191505060405180910390f35b3480156100ee57600080fd5b506101a86004803603602081101561010557600080fd5b810190808035906020019064010000000081111561012257600080fd5b82018360208201111561013457600080fd5b8035906020019184600183028401116401000000008311171561015657600080fd5b91908080601f016020809104026020016040519081016040528093929190818152602001838380828437600081840152601f19601f8201169050808301925050505050505091929192905050506102cf565b005b3480156101b657600080fd5b506101bf6104c7565b6040518080602001828103825283818151815260200191508051906020019060200280838360005b838110156102025780820151818401526020810190506101e7565b505050509050019250505060405180910390f35b34801561022257600080fd5b5061024f6004803603602081101561023957600080fd5b8101908080359060200190929190505050610555565b604051808273ffffffffffffffffffffffffffffffffffffffff1673ffffffffffffffffffffffffffffffffffffffff16815260200191505060405180910390f35b6001818154811015156102a057fe5b906000526020600020016000915054906101000a900473ffffffffffffffffffffffffffffffffffffffff1681565b6000806102dc3384610593565b9150600073ffffffffffffffffffffffffffffffffffffffff16600260009054906101000a900473ffffffffffffffffffffffffffffffffffffffff1673ffffffffffffffffffffffffffffffffffffffff1614156103445761033d610705565b90506103ac565b600260009054906101000a900473ffffffffffffffffffffffffffffffffffffffff1690506000600260006101000a81548173ffffffffffffffffffffffffffffffffffffffff021916908373ffffffffffffffffffffffffffffffffffffffff1602179055505b8073ffffffffffffffffffffffffffffffffffffffff1663858ced35336040518263ffffffff167c0100000000000000000000000000000000000000000000000000000000028152600401808273ffffffffffffffffffffffffffffffffffffffff1673ffffffffffffffffffffffffffffffffffffffff168152602001915050600060405180830381600087803b15801561044757600080fd5b505af115801561045b573d6000803e3d6000fd5b505050507f863e3f36fc5848babc6025f5f91544d64007a3de3dccfdbb067a413dc5b8378581604051808273ffffffffffffffffffffffffffffffffffffffff1673ffffffffffffffffffffffffffffffffffffffff16815260200191505060405180910390a1505050565b6060600180548060200260200160405190810160405280929190818152602001828054801561054b57602002820191906000526020600020905b8160009054906101000a900473ffffffffffffffffffffffffffffffffffffffff1673ffffffffffffffffffffffffffffffffffffffff1681526020019060010190808311610501575b5050505050905090565b60008181548110151561056457fe5b906000526020600020016000915054906101000a900473ffffffffffffffffffffffffffffffffffffffff1681565b6000808230856105a161079c565b80806020018473ffffffffffffffffffffffffffffffffffffffff1673ffffffffffffffffffffffffffffffffffffffff1681526020018373ffffffffffffffffffffffffffffffffffffffff1673ffffffffffffffffffffffffffffffffffffffff168152602001828103825285818151815260200191508051906020019080838360005b83811015610642578082015181840152602081019050610627565b50505050905090810190601f16801561066f5780820380516001836020036101000a031916815260200191505b50945050505050604051809103906000f080158015610692573d6000803e3d6000fd5b50905060008190806001815401808255809150509060018203906000526020600020016000909192909190916101000a81548173ffffffffffffffffffffffffffffffffffffffff021916908373ffffffffffffffffffffffffffffffffffffffff160217905550508091505092915050565b6000806107106107ac565b604051809103906000f08015801561072c573d6000803e3d6000fd5b50905060018190806001815401808255809150509060018203906000526020600020016000909192909190916101000a81548173ffffffffffffffffffffffffffffffffffffffff021916908373ffffffffffffffffffffffffffffffffffffffff160217905550508091505090565b604051610757806107bd83390190565b60405161171d80610f148339019056fe608060405234801561001057600080fd5b506040516107573803806107578339810180604052606081101561003357600080fd5b81019080805164010000000081111561004b57600080fd5b8281019050602081018481111561006157600080fd5b815185600182028301116401000000008211171561007e57600080fd5b50509291906020018051906020019092919080519060200190929190505050600460009054906101000a900473ffffffffffffffffffffffffffffffffffffffff16905082600290805190602001906100d8929190610131565b5060008081905550600060018190555081600560006101000a81548173ffffffffffffffffffffffffffffffffffffffff021916908373ffffffffffffffffffffffffffffffffffffffff1602179055505050506101d6565b828054600181600116156101000203166002900490600052602060002090601f016020900481019282601f1061017257805160ff19168380011785556101a0565b828001600101855582156101a0579182015b8281111561019f578251825591602001919060010190610184565b5b5090506101ad91906101b1565b5090565b6101d391905b808211156101cf5760008160009055506001016101b7565b5090565b90565b610572806101e56000396000f3fe608060405260043610610078576000357c0100000000000000000000000000000000000000000000000000000000900463ffffffff1680631e2ebcc81461007d57806324de908d14610094578063452e038d146100bf5780635042c9af146100ea5780638b9d28591461013b5780639c051e4314610152575b600080fd5b34801561008957600080fd5b506100926101e2565b005b3480156100a057600080fd5b506100a96102bb565b6040518082815260200191505060405180910390f35b3480156100cb57600080fd5b506100d46102c1565b6040518082815260200191505060405180910390f35b3480156100f657600080fd5b506101396004803603602081101561010d57600080fd5b81019080803573ffffffffffffffffffffffffffffffffffffffff1690602001909291905050506102c7565b005b34801561014757600080fd5b506101506103d0565b005b34801561015e57600080fd5b506101676104a8565b6040518080602001828103825283818151815260200191508051906020019080838360005b838110156101a757808201518184015260208101905061018c565b50505050905090810190601f1680156101d45780820380516001836020036101000a031916815260200191505b509250505060405180910390f35b600360009054906101000a900473ffffffffffffffffffffffffffffffffffffffff1673ffffffffffffffffffffffffffffffffffffffff163373ffffffffffffffffffffffffffffffffffffffff161415156102a7576040517f08c379a00000000000000000000000000000000000000000000000000000000081526004018080602001828103825260168152602001807f4f6e6c792067616d652063616e2075736520746861740000000000000000000081525060200191505060405180910390fd5b600160008154809291906001019190505550565b60005481565b60015481565b600560009054906101000a900473ffffffffffffffffffffffffffffffffffffffff1673ffffffffffffffffffffffffffffffffffffffff163373ffffffffffffffffffffffffffffffffffffffff1614151561038c576040517f08c379a000000000000000000000000000000000000000000000000000000000815260040180806020018281038252601e8152602001807f4f6e6c792067616d65206d616e616765722063616e207573652074686174000081525060200191505060405180910390fd5b80600360006101000a81548173ffffffffffffffffffffffffffffffffffffffff021916908373ffffffffffffffffffffffffffffffffffffffff16021790555050565b600360009054906101000a900473ffffffffffffffffffffffffffffffffffffffff1673ffffffffffffffffffffffffffffffffffffffff163373ffffffffffffffffffffffffffffffffffffffff16141515610495576040517f08c379a00000000000000000000000000000000000000000000000000000000081526004018080602001828103825260168152602001807f4f6e6c792067616d652063616e2075736520746861740000000000000000000081525060200191505060405180910390fd5b6000808154809291906001019190505550565b60028054600181600116156101000203166002900480601f01602080910402602001604051908101604052809291908181526020018280546001816001161561010002031660029004801561053e5780601f106105135761010080835404028352916020019161053e565b820191906000526020600020905b81548152906001019060200180831161052157829003601f168201915b50505050508156fea165627a7a723058203bfbb94775d47a04853abffa20446efa8fbb627cb54dada63cabd84ed09f4710002960806040526000600460006101000a81548173ffffffffffffffffffffffffffffffffffffffff021916908373ffffffffffffffffffffffffffffffffffffffff1602179055503480156200005357600080fd5b506001600060016101000a81548160ff02191690831515021790555060096000806101000a81548160ff021916908360ff160217905550620000a3620000a9640100000000026401000000009004565b6200044d565b6003604051908082528060200260200182016040528015620000e057816020015b6060815260200190600190039081620000ca5790505b5060039080519060200190620000f8929190620001d4565b5060008090505b60038160ff161015620001d157606060036040519080825280602002602001820160405280156200013f5781602001602082028038833980820191505090505b50905060008090505b60038160ff1610156200018d576000828260ff168151811015156200016957fe5b9060200190602002019060ff16908160ff1681525050808060010191505062000148565b508060038360ff16815481101515620001a257fe5b906000526020600020019080519060200190620001c19291906200023b565b50508080600101915050620000ff565b50565b82805482825590600052602060002090810192821562000228579160200282015b828111156200022757825182908051906020019062000216929190620002e9565b5091602001919060010190620001f5565b5b50905062000237919062000397565b5090565b82805482825590600052602060002090601f01602090048101928215620002d65791602002820160005b83821115620002a557835183826101000a81548160ff021916908360ff160217905550926020019260010160208160000104928301926001030262000265565b8015620002d45782816101000a81549060ff0219169055600101602081600001049283019260010302620002a5565b505b509050620002e59190620003c8565b5090565b82805482825590600052602060002090601f01602090048101928215620003845791602002820160005b838211156200035357835183826101000a81548160ff021916908360ff160217905550926020019260010160208160000104928301926001030262000313565b8015620003825782816101000a81549060ff021916905560010160208160000104928301926001030262000353565b505b509050620003939190620003c8565b5090565b620003c591905b80821115620003c15760008181620003b79190620003fb565b506001016200039e565b5090565b90565b620003f891905b80821115620003f457600081816101000a81549060ff021916905550600101620003cf565b5090565b90565b50805460008255601f01602090049060005260206000209081019062000422919062000425565b50565b6200044a91905b80821115620004465760008160009055506001016200042c565b5090565b90565b6112c0806200045d6000396000f3fe60806040526004361061008e576000357c0100000000000000000000000000000000000000000000000000000000900463ffffffff16806359a5f12d14610093578063701bd985146100ea5780638086a92a14610135578063858ced351461019457806395731112146101e5578063a094a0311461023c578063d30895e41461026b578063dfbf53ae146102c2575b600080fd5b34801561009f57600080fd5b506100a8610319565b604051808273ffffffffffffffffffffffffffffffffffffffff1673ffffffffffffffffffffffffffffffffffffffff16815260200191505060405180910390f35b3480156100f657600080fd5b506101336004803603604081101561010d57600080fd5b81019080803560ff169060200190929190803560ff16906020019092919050505061033f565b005b34801561014157600080fd5b506101786004803603604081101561015857600080fd5b8101908080359060200190929190803590602001909291905050506109b2565b604051808260ff1660ff16815260200191505060405180910390f35b3480156101a057600080fd5b506101e3600480360360208110156101b757600080fd5b81019080803573ffffffffffffffffffffffffffffffffffffffff1690602001909291905050506109ff565b005b3480156101f157600080fd5b506101fa610d6d565b604051808273ffffffffffffffffffffffffffffffffffffffff1673ffffffffffffffffffffffffffffffffffffffff16815260200191505060405180910390f35b34801561024857600080fd5b50610251610d93565b604051808215151515815260200191505060405180910390f35b34801561027757600080fd5b50610280610da6565b604051808273ffffffffffffffffffffffffffffffffffffffff1673ffffffffffffffffffffffffffffffffffffffff16815260200191505060405180910390f35b3480156102ce57600080fd5b506102d7610dcc565b604051808273ffffffffffffffffffffffffffffffffffffffff1673ffffffffffffffffffffffffffffffffffffffff16815260200191505060405180910390f35b600260009054906101000a900473ffffffffffffffffffffffffffffffffffffffff1681565b600060029054906101000a900473ffffffffffffffffffffffffffffffffffffffff1673ffffffffffffffffffffffffffffffffffffffff163373ffffffffffffffffffffffffffffffffffffffff16141515610404576040517f08c379a00000000000000000000000000000000000000000000000000000000081526004018080602001828103825260208152602001807f4f6e6c792061637469766520757365722063616e206d616b652061206d6f766581525060200191505060405180910390fd5b60001515600060019054906101000a900460ff16151514151561048f576040517f08c379a00000000000000000000000000000000000000000000000000000000081526004018080602001828103825260118152602001807f67616d65206973206e6f7420726561647900000000000000000000000000000081525060200191505060405180910390fd5b60008060009054906101000a900460ff1660ff16111515610518576040517f08c379a00000000000000000000000000000000000000000000000000000000081526004018080602001828103825260168152602001807f7468657265206973206e6f206d6f766573206c6566740000000000000000000081525060200191505060405180910390fd5b60038160ff1610801561052e575060038260ff16105b15156105a2576040517f08c379a000000000000000000000000000000000000000000000000000000000815260040180806020018281038252600c8152602001807f696c6c6567616c206d6f7665000000000000000000000000000000000000000081525060200191505060405180910390fd5b600060038360ff168154811015156105b657fe5b906000526020600020018260ff168154811015156105d057fe5b90600052602060002090602091828204019190069054906101000a900460ff1660ff1614151561068e576040517f08c379a000000000000000000000000000000000000000000000000000000000815260040180806020018281038252602a8152602001807f7468652063656c6c20697320616c7265616479207573656420627920616e6f7481526020017f68657220706c617965720000000000000000000000000000000000000000000081525060400191505060405180910390fd5b60016000809054906101000a900460ff16036000806101000a81548160ff021916908360ff160217905550600160009054906101000a900473ffffffffffffffffffffffffffffffffffffffff1673ffffffffffffffffffffffffffffffffffffffff163373ffffffffffffffffffffffffffffffffffffffff16141561081c57600160038360ff1681548110151561072357fe5b906000526020600020018260ff1681548110151561073d57fe5b90600052602060002090602091828204019190069054906101000a900460ff160160038360ff1681548110151561077057fe5b906000526020600020018260ff1681548110151561078a57fe5b90600052602060002090602091828204019190066101000a81548160ff021916908360ff160217905550600260009054906101000a900473ffffffffffffffffffffffffffffffffffffffff16600060026101000a81548173ffffffffffffffffffffffffffffffffffffffff021916908373ffffffffffffffffffffffffffffffffffffffff16021790555061097c565b600260009054906101000a900473ffffffffffffffffffffffffffffffffffffffff1673ffffffffffffffffffffffffffffffffffffffff163373ffffffffffffffffffffffffffffffffffffffff16141561097b57600760038360ff1681548110151561088657fe5b906000526020600020018260ff168154811015156108a057fe5b90600052602060002090602091828204019190069054906101000a900460ff160160038360ff168154811015156108d357fe5b906000526020600020018260ff168154811015156108ed57fe5b90600052602060002090602091828204019190066101000a81548160ff021916908360ff160217905550600160009054906101000a900473ffffffffffffffffffffffffffffffffffffffff16600060026101000a81548173ffffffffffffffffffffffffffffffffffffffff021916908373ffffffffffffffffffffffffffffffffffffffff1602179055505b5b610984610df2565b806109a0575060008060009054906101000a900460ff1660ff16145b156109ae576109ad6111d8565b5b5050565b6003828154811015156109c157fe5b90600052602060002001818154811015156109d857fe5b9060005260206000209060209182820401919006915091509054906101000a900460ff1681565b600073ffffffffffffffffffffffffffffffffffffffff16600160009054906101000a900473ffffffffffffffffffffffffffffffffffffffff1673ffffffffffffffffffffffffffffffffffffffff161480610aaa5750600073ffffffffffffffffffffffffffffffffffffffff16600260009054906101000a900473ffffffffffffffffffffffffffffffffffffffff1673ffffffffffffffffffffffffffffffffffffffff16145b1515610b1e576040517f08c379a000000000000000000000000000000000000000000000000000000000815260040180806020018281038252601b8152602001807f74776f20706c61796572732061726520696e207468652067616d65000000000081525060200191505060405180910390fd5b600073ffffffffffffffffffffffffffffffffffffffff16600160009054906101000a900473ffffffffffffffffffffffffffffffffffffffff1673ffffffffffffffffffffffffffffffffffffffff161415610bbb5780600160006101000a81548173ffffffffffffffffffffffffffffffffffffffff021916908373ffffffffffffffffffffffffffffffffffffffff160217905550610d6a565b600073ffffffffffffffffffffffffffffffffffffffff16600260009054906101000a900473ffffffffffffffffffffffffffffffffffffffff1673ffffffffffffffffffffffffffffffffffffffff161415610d695780600260006101000a81548173ffffffffffffffffffffffffffffffffffffffff021916908373ffffffffffffffffffffffffffffffffffffffff160217905550600260009054906101000a900473ffffffffffffffffffffffffffffffffffffffff16600060026101000a81548173ffffffffffffffffffffffffffffffffffffffff021916908373ffffffffffffffffffffffffffffffffffffffff16021790555060008060016101000a81548160ff02191690831515021790555060008090505b60038160ff161015610d675760008090505b60038160ff161015610d5957600060038360ff16815481101515610d0857fe5b906000526020600020018260ff16815481101515610d2257fe5b90600052602060002090602091828204019190066101000a81548160ff021916908360ff1602179055508080600101915050610ce8565b508080600101915050610cd6565b505b5b50565b600060029054906101000a900473ffffffffffffffffffffffffffffffffffffffff1681565b600060019054906101000a900460ff1681565b600160009054906101000a900473ffffffffffffffffffffffffffffffffffffffff1681565b600460009054906101000a900473ffffffffffffffffffffffffffffffffffffffff1681565b60008060009050600080905060008090505b60038160ff1610156110bd576000809050600080905060008090505b60038160ff161015610f975760038460ff16815481101515610e3e57fe5b906000526020600020018160ff16815481101515610e5857fe5b90600052602060002090602091828204019190069054906101000a900460ff168301925060038160ff16815481101515610e8e57fe5b906000526020600020018460ff16815481101515610ea857fe5b90600052602060002090602091828204019190069054906101000a900460ff16820191508060ff168460ff161415610f2b5760038460ff16815481101515610eec57fe5b906000526020600020018460ff16815481101515610f0657fe5b90600052602060002090602091828204019190069054906101000a900460ff16860195505b600281850160ff161415610f8a5760038160ff16815481101515610f4b57fe5b906000526020600020018460ff16815481101515610f6557fe5b90600052602060002090602091828204019190069054906101000a900460ff16850194505b8080600101915050610e20565b5060038260ff161480610fad575060038160ff16145b1561102357600160009054906101000a900473ffffffffffffffffffffffffffffffffffffffff16600460006101000a81548173ffffffffffffffffffffffffffffffffffffffff021916908373ffffffffffffffffffffffffffffffffffffffff1602179055506001955050505050506111d5565b60158260ff161480611038575060158160ff16145b156110ae57600260009054906101000a900473ffffffffffffffffffffffffffffffffffffffff16600460006101000a81548173ffffffffffffffffffffffffffffffffffffffff021916908373ffffffffffffffffffffffffffffffffffffffff1602179055506001955050505050506111d5565b50508080600101915050610e04565b5060038260ff1614806110d3575060038160ff16145b1561114657600160009054906101000a900473ffffffffffffffffffffffffffffffffffffffff16600460006101000a81548173ffffffffffffffffffffffffffffffffffffffff021916908373ffffffffffffffffffffffffffffffffffffffff1602179055506001925050506111d5565b60158260ff16148061115b575060158160ff16145b156111ce57600260009054906101000a900473ffffffffffffffffffffffffffffffffffffffff16600460006101000a81548173ffffffffffffffffffffffffffffffffffffffff021916908373ffffffffffffffffffffffffffffffffffffffff1602179055506001925050506111d5565b6000925050505b90565b6000600160006101000a81548173ffffffffffffffffffffffffffffffffffffffff021916908373ffffffffffffffffffffffffffffffffffffffff1602179055506000600260006101000a81548173ffffffffffffffffffffffffffffffffffffffff021916908373ffffffffffffffffffffffffffffffffffffffff1602179055506001600060016101000a81548160ff02191690831515021790555060096000806101000a81548160ff021916908360ff16021790555056fea165627a7a723058205f59057b276eec588efb7f788ef510d5d8e55598ad224c0c20e81b6f116ed5400029a165627a7a723058200cc50ab5af9cd1e88699fccd1ca4446b6d44454552fe6ba2aedf9165ec3c6e530029",
  "source": "pragma solidity 0.5.0;\n\nimport './TiCtAcToE.sol';\nimport \"./Player.sol\";\n\ncontract GameManager\n{\n    address[] public players;\n    address[] public games;\n    address recentCreatedGame;\n\n    // TODO mapping (address => uint8)\n\n    event playerJoinedGame(address gameAddress);\n\n    constructor() public {\n\n    }\n\n    function askForGame() public view returns (address[] memory){\n        return games;\n    }\n\n    function createGame() internal returns (TiCtAcToE){\n        TiCtAcToE gameNew;\n        gameNew = new TiCtAcToE();\n        games.push(address(gameNew));\n        return gameNew;\n    }\n\n    function createPlayer(address user,  string memory nickName) internal returns (Player){\n        Player player;\n        player = new Player(nickName, address(this), user);\n        players.push(address(player));\n        return player;\n    }\n\n\n    function joinGame(string memory nickName) public {\n\n        Player player;\n        TiCtAcToE gameContract;\n        player = createPlayer(msg.sender , nickName);\n\n\n        if (recentCreatedGame == address(0)) {\n            gameContract = createGame();\n\n        } else {\n            gameContract = TiCtAcToE(recentCreatedGame);\n            recentCreatedGame = address(0);\n        }\n\n        gameContract.setUser(msg.sender);\n        emit playerJoinedGame(address(gameContract));\n\n    }\n\n\n}\n",
  "sourcePath": "/Users/giser/develop/BA/GameManeger/contracts/GameManager.sol",
  "compiler": {
    "name": "solc",
    "version": "0.5.0+commit.1d4f565a.Emscripten.clang"
  },
  "schemaVersion": "3.0.1",
  "updatedAt": "2019-02-20T17:33:49.968Z",
  "devdoc": {
    "methods": {}
  },
  "userdoc": {
    "methods": {}
  }
}