{
  "contractName": "GameManager",
  "abi": [
    {
      "constant": true,
      "inputs": [
        {
          "name": "",
          "type": "uint256"
        }
      ],
      "name": "games",
      "outputs": [
        {
          "name": "",
          "type": "address"
        }
      ],
      "payable": false,
      "stateMutability": "view",
      "type": "function"
    },
    {
      "constant": true,
      "inputs": [
        {
          "name": "",
          "type": "uint256"
        }
      ],
      "name": "players",
      "outputs": [
        {
          "name": "",
          "type": "address"
        }
      ],
      "payable": false,
      "stateMutability": "view",
      "type": "function"
    },
    {
      "inputs": [],
      "payable": false,
      "stateMutability": "nonpayable",
      "type": "constructor"
    },
    {
      "anonymous": false,
      "inputs": [
        {
          "indexed": false,
          "name": "gameAddress",
          "type": "address"
        }
      ],
      "name": "playerJoinedGame",
      "type": "event"
    },
    {
      "constant": true,
      "inputs": [],
      "name": "askForGame",
      "outputs": [
        {
          "name": "",
          "type": "address[]"
        }
      ],
      "payable": false,
      "stateMutability": "view",
      "type": "function"
    },
    {
      "constant": false,
      "inputs": [
        {
          "name": "nickName",
          "type": "string"
        }
      ],
      "name": "joinGame",
      "outputs": [],
      "payable": true,
      "stateMutability": "payable",
      "type": "function"
    },
    {
      "constant": false,
      "inputs": [
        {
          "name": "gameForClose",
          "type": "address"
        }
      ],
      "name": "closeGame",
      "outputs": [],
      "payable": false,
      "stateMutability": "nonpayable",
      "type": "function"
    }
  ],
  "bytecode": "0x608060405234801561001057600080fd5b50336000806101000a81548173ffffffffffffffffffffffffffffffffffffffff021916908373ffffffffffffffffffffffffffffffffffffffff160217905550612f40806100606000396000f3fe60806040526004361062000073576000357c0100000000000000000000000000000000000000000000000000000000900463ffffffff1680630c981d581462000078578063117a5b9014620000cd5780633d536a2e146200014c5780635e9d1cd2146200020d578063f71d96cb146200027e575b600080fd5b3480156200008557600080fd5b50620000cb600480360360208110156200009e57600080fd5b81019080803573ffffffffffffffffffffffffffffffffffffffff169060200190929190505050620002fd565b005b348015620000da57600080fd5b506200010a60048036036020811015620000f357600080fd5b810190808035906020019092919050505062000443565b604051808273ffffffffffffffffffffffffffffffffffffffff1673ffffffffffffffffffffffffffffffffffffffff16815260200191505060405180910390f35b6200020b600480360360208110156200016457600080fd5b81019080803590602001906401000000008111156200018257600080fd5b8201836020820111156200019557600080fd5b80359060200191846001830284011164010000000083111715620001b857600080fd5b91908080601f016020809104026020016040519081016040528093929190818152602001838380828437600081840152601f19601f82011690508083019250505050505050919291929050505062000482565b005b3480156200021a57600080fd5b506200022562000728565b6040518080602001828103825283818151815260200191508051906020019060200280838360005b838110156200026a5780820151818401526020810190506200024d565b505050509050019250505060405180910390f35b3480156200028b57600080fd5b50620002bb60048036036020811015620002a457600080fd5b8101908080359060200190929190505050620007b8565b604051808273ffffffffffffffffffffffffffffffffffffffff1673ffffffffffffffffffffffffffffffffffffffff16815260200191505060405180910390f35b6000809054906101000a900473ffffffffffffffffffffffffffffffffffffffff1673ffffffffffffffffffffffffffffffffffffffff163373ffffffffffffffffffffffffffffffffffffffff16141515620003c2576040517f08c379a000000000000000000000000000000000000000000000000000000000815260040180806020018281038252600f8152602001807f6f6e6c7920666f72206f776e657220000000000000000000000000000000000081525060200191505060405180910390fd5b8073ffffffffffffffffffffffffffffffffffffffff166364953b936040518163ffffffff167c0100000000000000000000000000000000000000000000000000000000028152600401600060405180830381600087803b1580156200042757600080fd5b505af11580156200043c573d6000803e3d6000fd5b5050505050565b6002818154811015156200045357fe5b906000526020600020016000915054906101000a900473ffffffffffffffffffffffffffffffffffffffff1681565b668e1bc9bf040000341015151562000528576040517f08c379a00000000000000000000000000000000000000000000000000000000081526004018080602001828103825260228152602001807f506c656173652070617920736f6d652076616c756520746f206a6f696e20676181526020017f6d6500000000000000000000000000000000000000000000000000000000000081525060400191505060405180910390fd5b600080620005373384620007f7565b9150600073ffffffffffffffffffffffffffffffffffffffff16600360009054906101000a900473ffffffffffffffffffffffffffffffffffffffff1673ffffffffffffffffffffffffffffffffffffffff161415620005a3576200059b6200096f565b90506200060b565b600360009054906101000a900473ffffffffffffffffffffffffffffffffffffffff1690506000600360006101000a81548173ffffffffffffffffffffffffffffffffffffffff021916908373ffffffffffffffffffffffffffffffffffffffff1602179055505b8073ffffffffffffffffffffffffffffffffffffffff1663858ced35336040518263ffffffff167c0100000000000000000000000000000000000000000000000000000000028152600401808273ffffffffffffffffffffffffffffffffffffffff1673ffffffffffffffffffffffffffffffffffffffff168152602001915050600060405180830381600087803b158015620006a757600080fd5b505af1158015620006bc573d6000803e3d6000fd5b505050507f863e3f36fc5848babc6025f5f91544d64007a3de3dccfdbb067a413dc5b8378581604051808273ffffffffffffffffffffffffffffffffffffffff1673ffffffffffffffffffffffffffffffffffffffff16815260200191505060405180910390a1505050565b60606002805480602002602001604051908101604052809291908181526020018280548015620007ae57602002820191906000526020600020905b8160009054906101000a900473ffffffffffffffffffffffffffffffffffffffff1673ffffffffffffffffffffffffffffffffffffffff168152602001906001019080831162000763575b5050505050905090565b600181815481101515620007c857fe5b906000526020600020016000915054906101000a900473ffffffffffffffffffffffffffffffffffffffff1681565b6000808230856200080762000a09565b80806020018473ffffffffffffffffffffffffffffffffffffffff1673ffffffffffffffffffffffffffffffffffffffff1681526020018373ffffffffffffffffffffffffffffffffffffffff1673ffffffffffffffffffffffffffffffffffffffff168152602001828103825285818151815260200191508051906020019080838360005b83811015620008aa5780820151818401526020810190506200088d565b50505050905090810190601f168015620008d85780820380516001836020036101000a031916815260200191505b50945050505050604051809103906000f080158015620008fc573d6000803e3d6000fd5b50905060018190806001815401808255809150509060018203906000526020600020016000909192909190916101000a81548173ffffffffffffffffffffffffffffffffffffffff021916908373ffffffffffffffffffffffffffffffffffffffff160217905550508091505092915050565b6000806200097c62000a1a565b604051809103906000f08015801562000999573d6000803e3d6000fd5b50905060028190806001815401808255809150509060018203906000526020600020016000909192909190916101000a81548173ffffffffffffffffffffffffffffffffffffffff021916908373ffffffffffffffffffffffffffffffffffffffff160217905550508091505090565b6040516107578062000a2c83390190565b604051611d9280620011838339019056fe608060405234801561001057600080fd5b506040516107573803806107578339810180604052606081101561003357600080fd5b81019080805164010000000081111561004b57600080fd5b8281019050602081018481111561006157600080fd5b815185600182028301116401000000008211171561007e57600080fd5b50509291906020018051906020019092919080519060200190929190505050600460009054906101000a900473ffffffffffffffffffffffffffffffffffffffff16905082600290805190602001906100d8929190610131565b5060008081905550600060018190555081600560006101000a81548173ffffffffffffffffffffffffffffffffffffffff021916908373ffffffffffffffffffffffffffffffffffffffff1602179055505050506101d6565b828054600181600116156101000203166002900490600052602060002090601f016020900481019282601f1061017257805160ff19168380011785556101a0565b828001600101855582156101a0579182015b8281111561019f578251825591602001919060010190610184565b5b5090506101ad91906101b1565b5090565b6101d391905b808211156101cf5760008160009055506001016101b7565b5090565b90565b610572806101e56000396000f3fe608060405260043610610078576000357c0100000000000000000000000000000000000000000000000000000000900463ffffffff16806324de908d1461007d578063347ee05e146100a8578063452e038d146100bf5780635042c9af146100ea5780639c051e431461013b578063cb5cb08f146101cb575b600080fd5b34801561008957600080fd5b506100926101e2565b6040518082815260200191505060405180910390f35b3480156100b457600080fd5b506100bd6101e8565b005b3480156100cb57600080fd5b506100d46102c1565b6040518082815260200191505060405180910390f35b3480156100f657600080fd5b506101396004803603602081101561010d57600080fd5b81019080803573ffffffffffffffffffffffffffffffffffffffff1690602001909291905050506102c7565b005b34801561014757600080fd5b506101506103d0565b6040518080602001828103825283818151815260200191508051906020019080838360005b83811015610190578082015181840152602081019050610175565b50505050905090810190601f1680156101bd5780820380516001836020036101000a031916815260200191505b509250505060405180910390f35b3480156101d757600080fd5b506101e061046e565b005b60005481565b600360009054906101000a900473ffffffffffffffffffffffffffffffffffffffff1673ffffffffffffffffffffffffffffffffffffffff163373ffffffffffffffffffffffffffffffffffffffff161415156102ad576040517f08c379a00000000000000000000000000000000000000000000000000000000081526004018080602001828103825260168152602001807f4f6e6c792067616d652063616e2075736520746861740000000000000000000081525060200191505060405180910390fd5b600160008154809291906001019190505550565b60015481565b600560009054906101000a900473ffffffffffffffffffffffffffffffffffffffff1673ffffffffffffffffffffffffffffffffffffffff163373ffffffffffffffffffffffffffffffffffffffff1614151561038c576040517f08c379a000000000000000000000000000000000000000000000000000000000815260040180806020018281038252601e8152602001807f4f6e6c792067616d65206d616e616765722063616e207573652074686174000081525060200191505060405180910390fd5b80600360006101000a81548173ffffffffffffffffffffffffffffffffffffffff021916908373ffffffffffffffffffffffffffffffffffffffff16021790555050565b60028054600181600116156101000203166002900480601f0160208091040260200160405190810160405280929190818152602001828054600181600116156101000203166002900480156104665780601f1061043b57610100808354040283529160200191610466565b820191906000526020600020905b81548152906001019060200180831161044957829003601f168201915b505050505081565b600360009054906101000a900473ffffffffffffffffffffffffffffffffffffffff1673ffffffffffffffffffffffffffffffffffffffff163373ffffffffffffffffffffffffffffffffffffffff16141515610533576040517f08c379a00000000000000000000000000000000000000000000000000000000081526004018080602001828103825260168152602001807f4f6e6c792067616d652063616e2075736520746861740000000000000000000081525060200191505060405180910390fd5b600080815480929190600101919050555056fea165627a7a72305820a9c9e1181d086d80fe637e3c39ff978c69994a90a0fedfea6db1aede5d9aa7ae002960806040526000600560006101000a81548173ffffffffffffffffffffffffffffffffffffffff021916908373ffffffffffffffffffffffffffffffffffffffff1602179055503480156200005357600080fd5b5033600160006101000a81548173ffffffffffffffffffffffffffffffffffffffff021916908373ffffffffffffffffffffffffffffffffffffffff1602179055506001600060016101000a81548160ff02191690831515021790555060096000806101000a81548160ff021916908360ff160217905550620000e4620000ea640100000000026401000000009004565b6200048e565b60036040519080825280602002602001820160405280156200012157816020015b60608152602001906001900390816200010b5790505b50600490805190602001906200013992919062000215565b5060008090505b60038160ff161015620002125760606003604051908082528060200260200182016040528015620001805781602001602082028038833980820191505090505b50905060008090505b60038160ff161015620001ce576000828260ff16815181101515620001aa57fe5b9060200190602002019060ff16908160ff1681525050808060010191505062000189565b508060048360ff16815481101515620001e357fe5b906000526020600020019080519060200190620002029291906200027c565b5050808060010191505062000140565b50565b82805482825590600052602060002090810192821562000269579160200282015b8281111562000268578251829080519060200190620002579291906200032a565b509160200191906001019062000236565b5b509050620002789190620003d8565b5090565b82805482825590600052602060002090601f01602090048101928215620003175791602002820160005b83821115620002e657835183826101000a81548160ff021916908360ff1602179055509260200192600101602081600001049283019260010302620002a6565b8015620003155782816101000a81549060ff0219169055600101602081600001049283019260010302620002e6565b505b50905062000326919062000409565b5090565b82805482825590600052602060002090601f01602090048101928215620003c55791602002820160005b838211156200039457835183826101000a81548160ff021916908360ff160217905550926020019260010160208160000104928301926001030262000354565b8015620003c35782816101000a81549060ff021916905560010160208160000104928301926001030262000394565b505b509050620003d4919062000409565b5090565b6200040691905b80821115620004025760008181620003f891906200043c565b50600101620003df565b5090565b90565b6200043991905b808211156200043557600081816101000a81549060ff02191690555060010162000410565b5090565b90565b50805460008255601f01602090049060005260206000209081019062000463919062000466565b50565b6200048b91905b80821115620004875760008160009055506001016200046d565b5090565b90565b6118f4806200049e6000396000f3fe6080604052600436106100ba576000357c0100000000000000000000000000000000000000000000000000000000900463ffffffff16806359a5f12d146100bf57806364953b9314610116578063701bd9851461012d5780638086a92a14610178578063858ced35146101d757806393e9a084146102285780639573111214610253578063a094a031146102aa578063c0129d43146102d9578063d30895e414610330578063dfbf53ae14610387578063e0c6190d146103de575b600080fd5b3480156100cb57600080fd5b506100d46103f5565b604051808273ffffffffffffffffffffffffffffffffffffffff1673ffffffffffffffffffffffffffffffffffffffff16815260200191505060405180910390f35b34801561012257600080fd5b5061012b61041b565b005b34801561013957600080fd5b506101766004803603604081101561015057600080fd5b81019080803560ff169060200190929190803560ff1690602001909291905050506105ac565b005b34801561018457600080fd5b506101bb6004803603604081101561019b57600080fd5b810190808035906020019092919080359060200190929190505050610cec565b604051808260ff1660ff16815260200191505060405180910390f35b3480156101e357600080fd5b50610226600480360360208110156101fa57600080fd5b81019080803573ffffffffffffffffffffffffffffffffffffffff169060200190929190505050610d39565b005b34801561023457600080fd5b5061023d6110a7565b6040518082815260200191505060405180910390f35b34801561025f57600080fd5b506102686110ad565b604051808273ffffffffffffffffffffffffffffffffffffffff1673ffffffffffffffffffffffffffffffffffffffff16815260200191505060405180910390f35b3480156102b657600080fd5b506102bf6110d3565b604051808215151515815260200191505060405180910390f35b3480156102e557600080fd5b506102ee6110e6565b604051808273ffffffffffffffffffffffffffffffffffffffff1673ffffffffffffffffffffffffffffffffffffffff16815260200191505060405180910390f35b34801561033c57600080fd5b5061034561110c565b604051808273ffffffffffffffffffffffffffffffffffffffff1673ffffffffffffffffffffffffffffffffffffffff16815260200191505060405180910390f35b34801561039357600080fd5b5061039c611132565b604051808273ffffffffffffffffffffffffffffffffffffffff1673ffffffffffffffffffffffffffffffffffffffff16815260200191505060405180910390f35b3480156103ea57600080fd5b506103f3611158565b005b600360009054906101000a900473ffffffffffffffffffffffffffffffffffffffff1681565b600260009054906101000a900473ffffffffffffffffffffffffffffffffffffffff1673ffffffffffffffffffffffffffffffffffffffff16600560009054906101000a900473ffffffffffffffffffffffffffffffffffffffff1673ffffffffffffffffffffffffffffffffffffffff1614156104e057600360009054906101000a900473ffffffffffffffffffffffffffffffffffffffff1673ffffffffffffffffffffffffffffffffffffffff16600560009054906101000a905050506105a2565b600360009054906101000a900473ffffffffffffffffffffffffffffffffffffffff1673ffffffffffffffffffffffffffffffffffffffff16600560009054906101000a900473ffffffffffffffffffffffffffffffffffffffff1673ffffffffffffffffffffffffffffffffffffffff1614156105a157600260009054906101000a900473ffffffffffffffffffffffffffffffffffffffff1673ffffffffffffffffffffffffffffffffffffffff16600560009054906101000a905050505b5b6105aa611171565b565b600060029054906101000a900473ffffffffffffffffffffffffffffffffffffffff1673ffffffffffffffffffffffffffffffffffffffff163373ffffffffffffffffffffffffffffffffffffffff16141515610671576040517f08c379a00000000000000000000000000000000000000000000000000000000081526004018080602001828103825260208152602001807f4f6e6c792061637469766520757365722063616e206d616b652061206d6f766581525060200191505060405180910390fd5b60001515600060019054906101000a900460ff1615151415156106fc576040517f08c379a00000000000000000000000000000000000000000000000000000000081526004018080602001828103825260118152602001807f67616d65206973206e6f7420726561647900000000000000000000000000000081525060200191505060405180910390fd5b600073ffffffffffffffffffffffffffffffffffffffff16600560009054906101000a900473ffffffffffffffffffffffffffffffffffffffff1673ffffffffffffffffffffffffffffffffffffffff161415156107c2576040517f08c379a00000000000000000000000000000000000000000000000000000000081526004018080602001828103825260128152602001807f57696e6e657220697320736574206e6f7720000000000000000000000000000081525060200191505060405180910390fd5b60008060009054906101000a900460ff1660ff1611151561084b576040517f08c379a00000000000000000000000000000000000000000000000000000000081526004018080602001828103825260168152602001807f7468657265206973206e6f206d6f766573206c6566740000000000000000000081525060200191505060405180910390fd5b60038160ff16108015610861575060038260ff16105b15156108d5576040517f08c379a000000000000000000000000000000000000000000000000000000000815260040180806020018281038252600c8152602001807f696c6c6567616c206d6f7665000000000000000000000000000000000000000081525060200191505060405180910390fd5b600060048360ff168154811015156108e957fe5b906000526020600020018260ff1681548110151561090357fe5b90600052602060002090602091828204019190069054906101000a900460ff1660ff161415156109c1576040517f08c379a000000000000000000000000000000000000000000000000000000000815260040180806020018281038252602a8152602001807f7468652063656c6c20697320616c7265616479207573656420627920616e6f7481526020017f68657220706c617965720000000000000000000000000000000000000000000081525060400191505060405180910390fd5b4260068190555060016000809054906101000a900460ff16036000806101000a81548160ff021916908360ff160217905550600260009054906101000a900473ffffffffffffffffffffffffffffffffffffffff1673ffffffffffffffffffffffffffffffffffffffff163373ffffffffffffffffffffffffffffffffffffffff161415610b5657600160048360ff16815481101515610a5d57fe5b906000526020600020018260ff16815481101515610a7757fe5b90600052602060002090602091828204019190069054906101000a900460ff160160048360ff16815481101515610aaa57fe5b906000526020600020018260ff16815481101515610ac457fe5b90600052602060002090602091828204019190066101000a81548160ff021916908360ff160217905550600360009054906101000a900473ffffffffffffffffffffffffffffffffffffffff16600060026101000a81548173ffffffffffffffffffffffffffffffffffffffff021916908373ffffffffffffffffffffffffffffffffffffffff160217905550610cb6565b600360009054906101000a900473ffffffffffffffffffffffffffffffffffffffff1673ffffffffffffffffffffffffffffffffffffffff163373ffffffffffffffffffffffffffffffffffffffff161415610cb557600760048360ff16815481101515610bc057fe5b906000526020600020018260ff16815481101515610bda57fe5b90600052602060002090602091828204019190069054906101000a900460ff160160048360ff16815481101515610c0d57fe5b906000526020600020018260ff16815481101515610c2757fe5b90600052602060002090602091828204019190066101000a81548160ff021916908360ff160217905550600260009054906101000a900473ffffffffffffffffffffffffffffffffffffffff16600060026101000a81548173ffffffffffffffffffffffffffffffffffffffff021916908373ffffffffffffffffffffffffffffffffffffffff1602179055505b5b610cbe6114e2565b80610cda575060008060009054906101000a900460ff1660ff16145b15610ce857610ce7611171565b5b5050565b600482815481101515610cfb57fe5b9060005260206000200181815481101515610d1257fe5b9060005260206000209060209182820401919006915091509054906101000a900460ff1681565b600073ffffffffffffffffffffffffffffffffffffffff16600260009054906101000a900473ffffffffffffffffffffffffffffffffffffffff1673ffffffffffffffffffffffffffffffffffffffff161480610de45750600073ffffffffffffffffffffffffffffffffffffffff16600360009054906101000a900473ffffffffffffffffffffffffffffffffffffffff1673ffffffffffffffffffffffffffffffffffffffff16145b1515610e58576040517f08c379a000000000000000000000000000000000000000000000000000000000815260040180806020018281038252601b8152602001807f74776f20706c61796572732061726520696e207468652067616d65000000000081525060200191505060405180910390fd5b600073ffffffffffffffffffffffffffffffffffffffff16600260009054906101000a900473ffffffffffffffffffffffffffffffffffffffff1673ffffffffffffffffffffffffffffffffffffffff161415610ef55780600260006101000a81548173ffffffffffffffffffffffffffffffffffffffff021916908373ffffffffffffffffffffffffffffffffffffffff1602179055506110a4565b600073ffffffffffffffffffffffffffffffffffffffff16600360009054906101000a900473ffffffffffffffffffffffffffffffffffffffff1673ffffffffffffffffffffffffffffffffffffffff1614156110a35780600360006101000a81548173ffffffffffffffffffffffffffffffffffffffff021916908373ffffffffffffffffffffffffffffffffffffffff160217905550600360009054906101000a900473ffffffffffffffffffffffffffffffffffffffff16600060026101000a81548173ffffffffffffffffffffffffffffffffffffffff021916908373ffffffffffffffffffffffffffffffffffffffff16021790555060008060016101000a81548160ff02191690831515021790555060008090505b60038160ff1610156110a15760008090505b60038160ff16101561109357600060048360ff1681548110151561104257fe5b906000526020600020018260ff1681548110151561105c57fe5b90600052602060002090602091828204019190066101000a81548160ff021916908360ff1602179055508080600101915050611022565b508080600101915050611010565b505b5b50565b60065481565b600060029054906101000a900473ffffffffffffffffffffffffffffffffffffffff1681565b600060019054906101000a900460ff1681565b600160009054906101000a900473ffffffffffffffffffffffffffffffffffffffff1681565b600260009054906101000a900473ffffffffffffffffffffffffffffffffffffffff1681565b600560009054906101000a900473ffffffffffffffffffffffffffffffffffffffff1681565b603c600654420310151561116f5761116e61041b565b5b565b600260009054906101000a900473ffffffffffffffffffffffffffffffffffffffff1673ffffffffffffffffffffffffffffffffffffffff16600560009054906101000a900473ffffffffffffffffffffffffffffffffffffffff1673ffffffffffffffffffffffffffffffffffffffff16141561132a57600260009054906101000a900473ffffffffffffffffffffffffffffffffffffffff1673ffffffffffffffffffffffffffffffffffffffff1663cb5cb08f6040518163ffffffff167c0100000000000000000000000000000000000000000000000000000000028152600401600060405180830381600087803b15801561126f57600080fd5b505af1158015611283573d6000803e3d6000fd5b50505050600360009054906101000a900473ffffffffffffffffffffffffffffffffffffffff1673ffffffffffffffffffffffffffffffffffffffff1663347ee05e6040518163ffffffff167c0100000000000000000000000000000000000000000000000000000000028152600401600060405180830381600087803b15801561130d57600080fd5b505af1158015611321573d6000803e3d6000fd5b505050506114e0565b600360009054906101000a900473ffffffffffffffffffffffffffffffffffffffff1673ffffffffffffffffffffffffffffffffffffffff16600560009054906101000a900473ffffffffffffffffffffffffffffffffffffffff1673ffffffffffffffffffffffffffffffffffffffff1614156114df57600360009054906101000a900473ffffffffffffffffffffffffffffffffffffffff1673ffffffffffffffffffffffffffffffffffffffff1663cb5cb08f6040518163ffffffff167c0100000000000000000000000000000000000000000000000000000000028152600401600060405180830381600087803b15801561142857600080fd5b505af115801561143c573d6000803e3d6000fd5b50505050600260009054906101000a900473ffffffffffffffffffffffffffffffffffffffff1673ffffffffffffffffffffffffffffffffffffffff1663347ee05e6040518163ffffffff167c0100000000000000000000000000000000000000000000000000000000028152600401600060405180830381600087803b1580156114c657600080fd5b505af11580156114da573d6000803e3d6000fd5b505050505b5b565b60008060009050600080905060008090505b60038160ff1610156117ad576000809050600080905060008090505b60038160ff1610156116875760048460ff1681548110151561152e57fe5b906000526020600020018160ff1681548110151561154857fe5b90600052602060002090602091828204019190069054906101000a900460ff168301925060048160ff1681548110151561157e57fe5b906000526020600020018460ff1681548110151561159857fe5b90600052602060002090602091828204019190069054906101000a900460ff16820191508060ff168460ff16141561161b5760048460ff168154811015156115dc57fe5b906000526020600020018460ff168154811015156115f657fe5b90600052602060002090602091828204019190069054906101000a900460ff16860195505b600281850160ff16141561167a5760048160ff1681548110151561163b57fe5b906000526020600020018460ff1681548110151561165557fe5b90600052602060002090602091828204019190069054906101000a900460ff16850194505b8080600101915050611510565b5060038260ff16148061169d575060038160ff16145b1561171357600260009054906101000a900473ffffffffffffffffffffffffffffffffffffffff16600560006101000a81548173ffffffffffffffffffffffffffffffffffffffff021916908373ffffffffffffffffffffffffffffffffffffffff1602179055506001955050505050506118c5565b60158260ff161480611728575060158160ff16145b1561179e57600360009054906101000a900473ffffffffffffffffffffffffffffffffffffffff16600560006101000a81548173ffffffffffffffffffffffffffffffffffffffff021916908373ffffffffffffffffffffffffffffffffffffffff1602179055506001955050505050506118c5565b505080806001019150506114f4565b5060038260ff1614806117c3575060038160ff16145b1561183657600260009054906101000a900473ffffffffffffffffffffffffffffffffffffffff16600560006101000a81548173ffffffffffffffffffffffffffffffffffffffff021916908373ffffffffffffffffffffffffffffffffffffffff1602179055506001925050506118c5565b60158260ff16148061184b575060158160ff16145b156118be57600360009054906101000a900473ffffffffffffffffffffffffffffffffffffffff16600560006101000a81548173ffffffffffffffffffffffffffffffffffffffff021916908373ffffffffffffffffffffffffffffffffffffffff1602179055506001925050506118c5565b6000925050505b9056fea165627a7a72305820e2c59c8d5d1698a985ee612d524e5af8f64566dda22c74f194af2dc13d2169f30029a165627a7a72305820a736cc26cc01c2e0a8019b5bec47791559d87d528012927b1c6c1ce68a71afc90029",
  "source": "pragma solidity 0.5.0;\n\nimport './TiCtAcToE.sol';\nimport \"./Player.sol\";\n\ncontract GameManager\n{\n    address owner;\n    address[] public players;\n    address[] public games;\n    address recentCreatedGame;\n\n    // TODO mapping (address => uint8)\n\n    event playerJoinedGame(address gameAddress);\n\n    constructor() public {\n        owner = msg.sender;\n\n    }\n    modifier olyOwner(){\n        require(msg.sender == owner, \"only for owner \" );\n        _;\n\n    }\n\n    function askForGame() public view returns (address[] memory){\n        return games;\n    }\n\n    function createGame() internal returns (TiCtAcToE){\n        TiCtAcToE gameNew;\n        gameNew = new TiCtAcToE();\n        games.push(address(gameNew));\n        return gameNew;\n    }\n\n    function createPlayer(address user,  string memory nickName) internal returns (Player){\n        Player player;\n        player = new Player(nickName, address(this), user);\n        players.push(address(player));\n        return player;\n    }\n\n\n    function joinGame(string memory nickName) public payable {\n        require(msg.value >= 0.04 ether, 'Please pay some value to join game' );\n\n        Player player;\n        TiCtAcToE gameContract;\n        player = createPlayer(msg.sender , nickName);\n\n\n        if (recentCreatedGame == address(0)) {\n            gameContract = createGame();\n\n        } else {\n            gameContract = TiCtAcToE(recentCreatedGame);\n            recentCreatedGame = address(0);\n        }\n\n        gameContract.setUser(msg.sender);\n        emit playerJoinedGame(address(gameContract));\n\n    }\n\n    function closeGame(address gameForClose)olyOwner public {\n        TiCtAcToE(gameForClose).closeTable();\n\n    }\n\n\n\n\n\n}\n",
  "sourcePath": "/Users/giser/develop/BA/GameManeger/contracts/GameManager.sol",
  "compiler": {
    "name": "solc",
    "version": "0.5.0+commit.1d4f565a.Emscripten.clang"
  },
  "schemaVersion": "3.0.1",
  "updatedAt": "2019-03-02T10:33:01.233Z",
  "devdoc": {
    "methods": {}
  },
  "userdoc": {
    "methods": {}
  }
}