{
  "contractName": "GameManager",
  "abi": [
    {
      "constant": true,
      "inputs": [
        {
          "name": "",
          "type": "uint256"
        }
      ],
      "name": "games",
      "outputs": [
        {
          "name": "",
          "type": "address"
        }
      ],
      "payable": false,
      "stateMutability": "view",
      "type": "function"
    },
    {
      "constant": true,
      "inputs": [
        {
          "name": "",
          "type": "address"
        }
      ],
      "name": "players",
      "outputs": [
        {
          "name": "",
          "type": "address"
        }
      ],
      "payable": false,
      "stateMutability": "view",
      "type": "function"
    },
    {
      "inputs": [],
      "payable": false,
      "stateMutability": "nonpayable",
      "type": "constructor"
    },
    {
      "anonymous": false,
      "inputs": [
        {
          "indexed": false,
          "name": "gameAddress",
          "type": "address"
        }
      ],
      "name": "playerJoinedGame",
      "type": "event"
    },
    {
      "constant": true,
      "inputs": [],
      "name": "askForGame",
      "outputs": [
        {
          "name": "",
          "type": "address[]"
        }
      ],
      "payable": false,
      "stateMutability": "view",
      "type": "function"
    },
    {
      "constant": false,
      "inputs": [
        {
          "name": "user",
          "type": "address"
        }
      ],
      "name": "isPlayer",
      "outputs": [
        {
          "name": "",
          "type": "bool"
        }
      ],
      "payable": false,
      "stateMutability": "nonpayable",
      "type": "function"
    },
    {
      "constant": false,
      "inputs": [
        {
          "name": "nickName",
          "type": "string"
        }
      ],
      "name": "joinGame",
      "outputs": [],
      "payable": true,
      "stateMutability": "payable",
      "type": "function"
    },
    {
      "constant": false,
      "inputs": [
        {
          "name": "gameForClose",
          "type": "address"
        }
      ],
      "name": "closeGame",
      "outputs": [],
      "payable": false,
      "stateMutability": "nonpayable",
      "type": "function"
    }
  ],
  "bytecode": "0x608060405234801561001057600080fd5b50336000806101000a81548173ffffffffffffffffffffffffffffffffffffffff021916908373ffffffffffffffffffffffffffffffffffffffff160217905550613354806100606000396000f3fe6080604052600436106200007f576000357c0100000000000000000000000000000000000000000000000000000000900463ffffffff16806309c95e1014620000845780630c981d5814620000f1578063117a5b9014620001465780633d536a2e14620001c55780635e9d1cd21462000286578063e2eb41ff14620002f7575b600080fd5b3480156200009157600080fd5b50620000d760048036036020811015620000aa57600080fd5b81019080803573ffffffffffffffffffffffffffffffffffffffff1690602001909291905050506200038c565b604051808215151515815260200191505060405180910390f35b348015620000fe57600080fd5b5062000144600480360360208110156200011757600080fd5b81019080803573ffffffffffffffffffffffffffffffffffffffff169060200190929190505050620004ac565b005b3480156200015357600080fd5b5062000183600480360360208110156200016c57600080fd5b8101908080359060200190929190505050620005f2565b604051808273ffffffffffffffffffffffffffffffffffffffff1673ffffffffffffffffffffffffffffffffffffffff16815260200191505060405180910390f35b6200028460048036036020811015620001dd57600080fd5b8101908080359060200190640100000000811115620001fb57600080fd5b8201836020820111156200020e57600080fd5b803590602001918460018302840111640100000000831117156200023157600080fd5b91908080601f016020809104026020016040519081016040528093929190818152602001838380828437600081840152601f19601f82011690508083019250505050505050919291929050505062000631565b005b3480156200029357600080fd5b506200029e62000844565b6040518080602001828103825283818151815260200191508051906020019060200280838360005b83811015620002e3578082015181840152602081019050620002c6565b505050509050019250505060405180910390f35b3480156200030457600080fd5b506200034a600480360360208110156200031d57600080fd5b81019080803573ffffffffffffffffffffffffffffffffffffffff169060200190929190505050620008d4565b604051808273ffffffffffffffffffffffffffffffffffffffff1673ffffffffffffffffffffffffffffffffffffffff16815260200191505060405180910390f35b60008073ffffffffffffffffffffffffffffffffffffffff168273ffffffffffffffffffffffffffffffffffffffff1614151515620003ca57600080fd5b600160008373ffffffffffffffffffffffffffffffffffffffff1673ffffffffffffffffffffffffffffffffffffffff16815260200190815260200160002060009054906101000a905050600073ffffffffffffffffffffffffffffffffffffffff16600160008473ffffffffffffffffffffffffffffffffffffffff1673ffffffffffffffffffffffffffffffffffffffff16815260200190815260200160002060009054906101000a900473ffffffffffffffffffffffffffffffffffffffff1673ffffffffffffffffffffffffffffffffffffffff1614159050919050565b6000809054906101000a900473ffffffffffffffffffffffffffffffffffffffff1673ffffffffffffffffffffffffffffffffffffffff163373ffffffffffffffffffffffffffffffffffffffff1614151562000571576040517f08c379a000000000000000000000000000000000000000000000000000000000815260040180806020018281038252600f8152602001807f6f6e6c7920666f72206f776e657220000000000000000000000000000000000081525060200191505060405180910390fd5b8073ffffffffffffffffffffffffffffffffffffffff166364953b936040518163ffffffff167c0100000000000000000000000000000000000000000000000000000000028152600401600060405180830381600087803b158015620005d657600080fd5b505af1158015620005eb573d6000803e3d6000fd5b5050505050565b6002818154811015156200060257fe5b906000526020600020016000915054906101000a900473ffffffffffffffffffffffffffffffffffffffff1681565b6000806200063f336200038c565b1515620006555762000652338462000907565b91505b600073ffffffffffffffffffffffffffffffffffffffff16600360009054906101000a900473ffffffffffffffffffffffffffffffffffffffff1673ffffffffffffffffffffffffffffffffffffffff161415620006bf57620006b762000a97565b905062000727565b600360009054906101000a900473ffffffffffffffffffffffffffffffffffffffff1690506000600360006101000a81548173ffffffffffffffffffffffffffffffffffffffff021916908373ffffffffffffffffffffffffffffffffffffffff1602179055505b8073ffffffffffffffffffffffffffffffffffffffff1663858ced35336040518263ffffffff167c0100000000000000000000000000000000000000000000000000000000028152600401808273ffffffffffffffffffffffffffffffffffffffff1673ffffffffffffffffffffffffffffffffffffffff168152602001915050600060405180830381600087803b158015620007c357600080fd5b505af1158015620007d8573d6000803e3d6000fd5b505050507f863e3f36fc5848babc6025f5f91544d64007a3de3dccfdbb067a413dc5b8378581604051808273ffffffffffffffffffffffffffffffffffffffff1673ffffffffffffffffffffffffffffffffffffffff16815260200191505060405180910390a1505050565b60606002805480602002602001604051908101604052809291908181526020018280548015620008ca57602002820191906000526020600020905b8160009054906101000a900473ffffffffffffffffffffffffffffffffffffffff1673ffffffffffffffffffffffffffffffffffffffff16815260200190600101908083116200087f575b5050505050905090565b60016020528060005260406000206000915054906101000a900473ffffffffffffffffffffffffffffffffffffffff1681565b6000808230856200091762000b31565b80806020018473ffffffffffffffffffffffffffffffffffffffff1673ffffffffffffffffffffffffffffffffffffffff1681526020018373ffffffffffffffffffffffffffffffffffffffff1673ffffffffffffffffffffffffffffffffffffffff168152602001828103825285818151815260200191508051906020019080838360005b83811015620009ba5780820151818401526020810190506200099d565b50505050905090810190601f168015620009e85780820380516001836020036101000a031916815260200191505b50945050505050604051809103906000f08015801562000a0c573d6000803e3d6000fd5b50905080600160008673ffffffffffffffffffffffffffffffffffffffff1673ffffffffffffffffffffffffffffffffffffffff16815260200190815260200160002060006101000a81548173ffffffffffffffffffffffffffffffffffffffff021916908373ffffffffffffffffffffffffffffffffffffffff1602179055508091505092915050565b60008062000aa462000b42565b604051809103906000f08015801562000ac1573d6000803e3d6000fd5b50905060028190806001815401808255809150509060018203906000526020600020016000909192909190916101000a81548173ffffffffffffffffffffffffffffffffffffffff021916908373ffffffffffffffffffffffffffffffffffffffff160217905550508091505090565b6040516108678062000b5483390190565b604051611f6e80620013bb8339019056fe608060405234801561001057600080fd5b506040516108673803806108678339810180604052606081101561003357600080fd5b81019080805164010000000081111561004b57600080fd5b8281019050602081018481111561006157600080fd5b815185600182028301116401000000008211171561007e57600080fd5b50509291906020018051906020019092919080519060200190929190505050600460009054906101000a900473ffffffffffffffffffffffffffffffffffffffff16905082600290805190602001906100d8929190610131565b5060008081905550600060018190555081600560006101000a81548173ffffffffffffffffffffffffffffffffffffffff021916908373ffffffffffffffffffffffffffffffffffffffff1602179055505050506101d6565b828054600181600116156101000203166002900490600052602060002090601f016020900481019282601f1061017257805160ff19168380011785556101a0565b828001600101855582156101a0579182015b8281111561019f578251825591602001919060010190610184565b5b5090506101ad91906101b1565b5090565b6101d391905b808211156101cf5760008160009055506001016101b7565b5090565b90565b610682806101e56000396000f3fe60806040526004361061008e576000357c0100000000000000000000000000000000000000000000000000000000900463ffffffff16806324de908d14610093578063347ee05e146100be578063452e038d146100d55780635042c9af14610100578063859340be146101515780639c051e43146101a8578063c0129d4314610238578063cb5cb08f1461028f575b600080fd5b34801561009f57600080fd5b506100a86102a6565b6040518082815260200191505060405180910390f35b3480156100ca57600080fd5b506100d36102ac565b005b3480156100e157600080fd5b506100ea610385565b6040518082815260200191505060405180910390f35b34801561010c57600080fd5b5061014f6004803603602081101561012357600080fd5b81019080803573ffffffffffffffffffffffffffffffffffffffff16906020019092919050505061038b565b005b34801561015d57600080fd5b50610166610494565b604051808273ffffffffffffffffffffffffffffffffffffffff1673ffffffffffffffffffffffffffffffffffffffff16815260200191505060405180910390f35b3480156101b457600080fd5b506101bd6104ba565b6040518080602001828103825283818151815260200191508051906020019080838360005b838110156101fd5780820151818401526020810190506101e2565b50505050905090810190601f16801561022a5780820380516001836020036101000a031916815260200191505b509250505060405180910390f35b34801561024457600080fd5b5061024d610558565b604051808273ffffffffffffffffffffffffffffffffffffffff1673ffffffffffffffffffffffffffffffffffffffff16815260200191505060405180910390f35b34801561029b57600080fd5b506102a461057e565b005b60005481565b600360009054906101000a900473ffffffffffffffffffffffffffffffffffffffff1673ffffffffffffffffffffffffffffffffffffffff163373ffffffffffffffffffffffffffffffffffffffff16141515610371576040517f08c379a00000000000000000000000000000000000000000000000000000000081526004018080602001828103825260168152602001807f4f6e6c792067616d652063616e2075736520746861740000000000000000000081525060200191505060405180910390fd5b600160008154809291906001019190505550565b60015481565b600560009054906101000a900473ffffffffffffffffffffffffffffffffffffffff1673ffffffffffffffffffffffffffffffffffffffff163373ffffffffffffffffffffffffffffffffffffffff16141515610450576040517f08c379a000000000000000000000000000000000000000000000000000000000815260040180806020018281038252601e8152602001807f4f6e6c792067616d65206d616e616765722063616e207573652074686174000081525060200191505060405180910390fd5b80600360006101000a81548173ffffffffffffffffffffffffffffffffffffffff021916908373ffffffffffffffffffffffffffffffffffffffff16021790555050565b600360009054906101000a900473ffffffffffffffffffffffffffffffffffffffff1681565b60028054600181600116156101000203166002900480601f0160208091040260200160405190810160405280929190818152602001828054600181600116156101000203166002900480156105505780601f1061052557610100808354040283529160200191610550565b820191906000526020600020905b81548152906001019060200180831161053357829003601f168201915b505050505081565b600560009054906101000a900473ffffffffffffffffffffffffffffffffffffffff1681565b600360009054906101000a900473ffffffffffffffffffffffffffffffffffffffff1673ffffffffffffffffffffffffffffffffffffffff163373ffffffffffffffffffffffffffffffffffffffff16141515610643576040517f08c379a00000000000000000000000000000000000000000000000000000000081526004018080602001828103825260168152602001807f4f6e6c792067616d652063616e2075736520746861740000000000000000000081525060200191505060405180910390fd5b600080815480929190600101919050555056fea165627a7a72305820dbf17aba639c0c3cf5dd6ac7c549cd5406d75d3661635becf12cf10b04cc1cc3002960806040526000600560006101000a81548173ffffffffffffffffffffffffffffffffffffffff021916908373ffffffffffffffffffffffffffffffffffffffff1602179055503480156200005357600080fd5b5033600160006101000a81548173ffffffffffffffffffffffffffffffffffffffff021916908373ffffffffffffffffffffffffffffffffffffffff1602179055506001600060016101000a81548160ff02191690831515021790555060096000806101000a81548160ff021916908360ff160217905550620000e4620000ea640100000000026401000000009004565b6200048e565b60036040519080825280602002602001820160405280156200012157816020015b60608152602001906001900390816200010b5790505b50600490805190602001906200013992919062000215565b5060008090505b60038160ff161015620002125760606003604051908082528060200260200182016040528015620001805781602001602082028038833980820191505090505b50905060008090505b60038160ff161015620001ce576000828260ff16815181101515620001aa57fe5b9060200190602002019060ff16908160ff1681525050808060010191505062000189565b508060048360ff16815481101515620001e357fe5b906000526020600020019080519060200190620002029291906200027c565b5050808060010191505062000140565b50565b82805482825590600052602060002090810192821562000269579160200282015b8281111562000268578251829080519060200190620002579291906200032a565b509160200191906001019062000236565b5b509050620002789190620003d8565b5090565b82805482825590600052602060002090601f01602090048101928215620003175791602002820160005b83821115620002e657835183826101000a81548160ff021916908360ff1602179055509260200192600101602081600001049283019260010302620002a6565b8015620003155782816101000a81549060ff0219169055600101602081600001049283019260010302620002e6565b505b50905062000326919062000409565b5090565b82805482825590600052602060002090601f01602090048101928215620003c55791602002820160005b838211156200039457835183826101000a81548160ff021916908360ff160217905550926020019260010160208160000104928301926001030262000354565b8015620003c35782816101000a81549060ff021916905560010160208160000104928301926001030262000394565b505b509050620003d4919062000409565b5090565b6200040691905b80821115620004025760008181620003f891906200043c565b50600101620003df565b5090565b90565b6200043991905b808211156200043557600081816101000a81549060ff02191690555060010162000410565b5090565b90565b50805460008255601f01602090049060005260206000209081019062000463919062000466565b50565b6200048b91905b80821115620004875760008160009055506001016200046d565b5090565b90565b611ad0806200049e6000396000f3fe6080604052600436106100ba576000357c0100000000000000000000000000000000000000000000000000000000900463ffffffff16806359a5f12d146100bf57806364953b9314610116578063701bd9851461012d5780638086a92a14610178578063858ced35146101d757806393e9a084146102285780639573111214610253578063a094a031146102aa578063c0129d43146102d9578063d30895e414610330578063dfbf53ae14610387578063e0c6190d146103de575b600080fd5b3480156100cb57600080fd5b506100d46103f5565b604051808273ffffffffffffffffffffffffffffffffffffffff1673ffffffffffffffffffffffffffffffffffffffff16815260200191505060405180910390f35b34801561012257600080fd5b5061012b61041b565b005b34801561013957600080fd5b506101766004803603604081101561015057600080fd5b81019080803560ff169060200190929190803560ff1690602001909291905050506105ac565b005b34801561018457600080fd5b506101bb6004803603604081101561019b57600080fd5b810190808035906020019092919080359060200190929190505050610d87565b604051808260ff1660ff16815260200191505060405180910390f35b3480156101e357600080fd5b50610226600480360360208110156101fa57600080fd5b81019080803573ffffffffffffffffffffffffffffffffffffffff169060200190929190505050610dd4565b005b34801561023457600080fd5b5061023d611142565b6040518082815260200191505060405180910390f35b34801561025f57600080fd5b50610268611148565b604051808273ffffffffffffffffffffffffffffffffffffffff1673ffffffffffffffffffffffffffffffffffffffff16815260200191505060405180910390f35b3480156102b657600080fd5b506102bf61116e565b604051808215151515815260200191505060405180910390f35b3480156102e557600080fd5b506102ee611181565b604051808273ffffffffffffffffffffffffffffffffffffffff1673ffffffffffffffffffffffffffffffffffffffff16815260200191505060405180910390f35b34801561033c57600080fd5b506103456111a7565b604051808273ffffffffffffffffffffffffffffffffffffffff1673ffffffffffffffffffffffffffffffffffffffff16815260200191505060405180910390f35b34801561039357600080fd5b5061039c6111cd565b604051808273ffffffffffffffffffffffffffffffffffffffff1673ffffffffffffffffffffffffffffffffffffffff16815260200191505060405180910390f35b3480156103ea57600080fd5b506103f36111f3565b005b600360009054906101000a900473ffffffffffffffffffffffffffffffffffffffff1681565b600260009054906101000a900473ffffffffffffffffffffffffffffffffffffffff1673ffffffffffffffffffffffffffffffffffffffff16600560009054906101000a900473ffffffffffffffffffffffffffffffffffffffff1673ffffffffffffffffffffffffffffffffffffffff1614156104e057600360009054906101000a900473ffffffffffffffffffffffffffffffffffffffff1673ffffffffffffffffffffffffffffffffffffffff16600560009054906101000a905050506105a2565b600360009054906101000a900473ffffffffffffffffffffffffffffffffffffffff1673ffffffffffffffffffffffffffffffffffffffff16600560009054906101000a900473ffffffffffffffffffffffffffffffffffffffff1673ffffffffffffffffffffffffffffffffffffffff1614156105a157600260009054906101000a900473ffffffffffffffffffffffffffffffffffffffff1673ffffffffffffffffffffffffffffffffffffffff16600560009054906101000a905050505b5b6105aa61120c565b565b600060029054906101000a900473ffffffffffffffffffffffffffffffffffffffff1673ffffffffffffffffffffffffffffffffffffffff163373ffffffffffffffffffffffffffffffffffffffff16141515610671576040517f08c379a00000000000000000000000000000000000000000000000000000000081526004018080602001828103825260208152602001807f4f6e6c792061637469766520757365722063616e206d616b652061206d6f766581525060200191505060405180910390fd5b60001515600060019054906101000a900460ff1615151415156106fc576040517f08c379a00000000000000000000000000000000000000000000000000000000081526004018080602001828103825260118152602001807f67616d65206973206e6f7420726561647900000000000000000000000000000081525060200191505060405180910390fd5b600073ffffffffffffffffffffffffffffffffffffffff16600560009054906101000a900473ffffffffffffffffffffffffffffffffffffffff1673ffffffffffffffffffffffffffffffffffffffff161415156107c2576040517f08c379a00000000000000000000000000000000000000000000000000000000081526004018080602001828103825260128152602001807f57696e6e657220697320736574206e6f7720000000000000000000000000000081525060200191505060405180910390fd5b60008060009054906101000a900460ff1660ff1611151561084b576040517f08c379a00000000000000000000000000000000000000000000000000000000081526004018080602001828103825260168152602001807f7468657265206973206e6f206d6f766573206c6566740000000000000000000081525060200191505060405180910390fd5b60038160ff16108015610861575060038260ff16105b15156108d5576040517f08c379a000000000000000000000000000000000000000000000000000000000815260040180806020018281038252600c8152602001807f696c6c6567616c206d6f7665000000000000000000000000000000000000000081525060200191505060405180910390fd5b600060048360ff168154811015156108e957fe5b906000526020600020018260ff1681548110151561090357fe5b90600052602060002090602091828204019190069054906101000a900460ff1660ff161415156109c1576040517f08c379a000000000000000000000000000000000000000000000000000000000815260040180806020018281038252602a8152602001807f7468652063656c6c20697320616c7265616479207573656420627920616e6f7481526020017f68657220706c617965720000000000000000000000000000000000000000000081525060400191505060405180910390fd5b4260068190555060016000809054906101000a900460ff16036000806101000a81548160ff021916908360ff160217905550600260009054906101000a900473ffffffffffffffffffffffffffffffffffffffff1673ffffffffffffffffffffffffffffffffffffffff163373ffffffffffffffffffffffffffffffffffffffff161415610b5657600160048360ff16815481101515610a5d57fe5b906000526020600020018260ff16815481101515610a7757fe5b90600052602060002090602091828204019190069054906101000a900460ff160160048360ff16815481101515610aaa57fe5b906000526020600020018260ff16815481101515610ac457fe5b90600052602060002090602091828204019190066101000a81548160ff021916908360ff160217905550600360009054906101000a900473ffffffffffffffffffffffffffffffffffffffff16600060026101000a81548173ffffffffffffffffffffffffffffffffffffffff021916908373ffffffffffffffffffffffffffffffffffffffff160217905550610cb6565b600360009054906101000a900473ffffffffffffffffffffffffffffffffffffffff1673ffffffffffffffffffffffffffffffffffffffff163373ffffffffffffffffffffffffffffffffffffffff161415610cb557600760048360ff16815481101515610bc057fe5b906000526020600020018260ff16815481101515610bda57fe5b90600052602060002090602091828204019190069054906101000a900460ff160160048360ff16815481101515610c0d57fe5b906000526020600020018260ff16815481101515610c2757fe5b90600052602060002090602091828204019190066101000a81548160ff021916908360ff160217905550600260009054906101000a900473ffffffffffffffffffffffffffffffffffffffff16600060026101000a81548173ffffffffffffffffffffffffffffffffffffffff021916908373ffffffffffffffffffffffffffffffffffffffff1602179055505b5b610cbe6116be565b80610cda575060008060009054906101000a900460ff1660ff16145b15610ce857610ce761120c565b5b7f0d1ec17ecd8072cd5c1d2dc6f8aef78e19d0118691fbb4d7555b47179398e60a600060029054906101000a900473ffffffffffffffffffffffffffffffffffffffff168383604051808473ffffffffffffffffffffffffffffffffffffffff1673ffffffffffffffffffffffffffffffffffffffff1681526020018360ff1681526020018260ff168152602001935050505060405180910390a15050565b600482815481101515610d9657fe5b9060005260206000200181815481101515610dad57fe5b9060005260206000209060209182820401919006915091509054906101000a900460ff1681565b600073ffffffffffffffffffffffffffffffffffffffff16600260009054906101000a900473ffffffffffffffffffffffffffffffffffffffff1673ffffffffffffffffffffffffffffffffffffffff161480610e7f5750600073ffffffffffffffffffffffffffffffffffffffff16600360009054906101000a900473ffffffffffffffffffffffffffffffffffffffff1673ffffffffffffffffffffffffffffffffffffffff16145b1515610ef3576040517f08c379a000000000000000000000000000000000000000000000000000000000815260040180806020018281038252601b8152602001807f74776f20706c61796572732061726520696e207468652067616d65000000000081525060200191505060405180910390fd5b600073ffffffffffffffffffffffffffffffffffffffff16600260009054906101000a900473ffffffffffffffffffffffffffffffffffffffff1673ffffffffffffffffffffffffffffffffffffffff161415610f905780600260006101000a81548173ffffffffffffffffffffffffffffffffffffffff021916908373ffffffffffffffffffffffffffffffffffffffff16021790555061113f565b600073ffffffffffffffffffffffffffffffffffffffff16600360009054906101000a900473ffffffffffffffffffffffffffffffffffffffff1673ffffffffffffffffffffffffffffffffffffffff16141561113e5780600360006101000a81548173ffffffffffffffffffffffffffffffffffffffff021916908373ffffffffffffffffffffffffffffffffffffffff160217905550600360009054906101000a900473ffffffffffffffffffffffffffffffffffffffff16600060026101000a81548173ffffffffffffffffffffffffffffffffffffffff021916908373ffffffffffffffffffffffffffffffffffffffff16021790555060008060016101000a81548160ff02191690831515021790555060008090505b60038160ff16101561113c5760008090505b60038160ff16101561112e57600060048360ff168154811015156110dd57fe5b906000526020600020018260ff168154811015156110f757fe5b90600052602060002090602091828204019190066101000a81548160ff021916908360ff16021790555080806001019150506110bd565b5080806001019150506110ab565b505b5b50565b60065481565b600060029054906101000a900473ffffffffffffffffffffffffffffffffffffffff1681565b600060019054906101000a900460ff1681565b600160009054906101000a900473ffffffffffffffffffffffffffffffffffffffff1681565b600260009054906101000a900473ffffffffffffffffffffffffffffffffffffffff1681565b600560009054906101000a900473ffffffffffffffffffffffffffffffffffffffff1681565b603c600654420310151561120a5761120961041b565b5b565b600260009054906101000a900473ffffffffffffffffffffffffffffffffffffffff1673ffffffffffffffffffffffffffffffffffffffff16600560009054906101000a900473ffffffffffffffffffffffffffffffffffffffff1673ffffffffffffffffffffffffffffffffffffffff1614156113c557600260009054906101000a900473ffffffffffffffffffffffffffffffffffffffff1673ffffffffffffffffffffffffffffffffffffffff1663cb5cb08f6040518163ffffffff167c0100000000000000000000000000000000000000000000000000000000028152600401600060405180830381600087803b15801561130a57600080fd5b505af115801561131e573d6000803e3d6000fd5b50505050600360009054906101000a900473ffffffffffffffffffffffffffffffffffffffff1673ffffffffffffffffffffffffffffffffffffffff1663347ee05e6040518163ffffffff167c0100000000000000000000000000000000000000000000000000000000028152600401600060405180830381600087803b1580156113a857600080fd5b505af11580156113bc573d6000803e3d6000fd5b505050506116bc565b600360009054906101000a900473ffffffffffffffffffffffffffffffffffffffff1673ffffffffffffffffffffffffffffffffffffffff16600560009054906101000a900473ffffffffffffffffffffffffffffffffffffffff1673ffffffffffffffffffffffffffffffffffffffff16141561157e57600360009054906101000a900473ffffffffffffffffffffffffffffffffffffffff1673ffffffffffffffffffffffffffffffffffffffff1663cb5cb08f6040518163ffffffff167c0100000000000000000000000000000000000000000000000000000000028152600401600060405180830381600087803b1580156114c357600080fd5b505af11580156114d7573d6000803e3d6000fd5b50505050600260009054906101000a900473ffffffffffffffffffffffffffffffffffffffff1673ffffffffffffffffffffffffffffffffffffffff1663347ee05e6040518163ffffffff167c0100000000000000000000000000000000000000000000000000000000028152600401600060405180830381600087803b15801561156157600080fd5b505af1158015611575573d6000803e3d6000fd5b505050506116bb565b600360009054906101000a900473ffffffffffffffffffffffffffffffffffffffff1673ffffffffffffffffffffffffffffffffffffffff1663347ee05e6040518163ffffffff167c0100000000000000000000000000000000000000000000000000000000028152600401600060405180830381600087803b15801561160457600080fd5b505af1158015611618573d6000803e3d6000fd5b50505050600260009054906101000a900473ffffffffffffffffffffffffffffffffffffffff1673ffffffffffffffffffffffffffffffffffffffff1663347ee05e6040518163ffffffff167c0100000000000000000000000000000000000000000000000000000000028152600401600060405180830381600087803b1580156116a257600080fd5b505af11580156116b6573d6000803e3d6000fd5b505050505b5b565b60008060009050600080905060008090505b60038160ff161015611989576000809050600080905060008090505b60038160ff1610156118635760048460ff1681548110151561170a57fe5b906000526020600020018160ff1681548110151561172457fe5b90600052602060002090602091828204019190069054906101000a900460ff168301925060048160ff1681548110151561175a57fe5b906000526020600020018460ff1681548110151561177457fe5b90600052602060002090602091828204019190069054906101000a900460ff16820191508060ff168460ff1614156117f75760048460ff168154811015156117b857fe5b906000526020600020018460ff168154811015156117d257fe5b90600052602060002090602091828204019190069054906101000a900460ff16860195505b600281850160ff1614156118565760048160ff1681548110151561181757fe5b906000526020600020018460ff1681548110151561183157fe5b90600052602060002090602091828204019190069054906101000a900460ff16850194505b80806001019150506116ec565b5060038260ff161480611879575060038160ff16145b156118ef57600260009054906101000a900473ffffffffffffffffffffffffffffffffffffffff16600560006101000a81548173ffffffffffffffffffffffffffffffffffffffff021916908373ffffffffffffffffffffffffffffffffffffffff160217905550600195505050505050611aa1565b60158260ff161480611904575060158160ff16145b1561197a57600360009054906101000a900473ffffffffffffffffffffffffffffffffffffffff16600560006101000a81548173ffffffffffffffffffffffffffffffffffffffff021916908373ffffffffffffffffffffffffffffffffffffffff160217905550600195505050505050611aa1565b505080806001019150506116d0565b5060038260ff16148061199f575060038160ff16145b15611a1257600260009054906101000a900473ffffffffffffffffffffffffffffffffffffffff16600560006101000a81548173ffffffffffffffffffffffffffffffffffffffff021916908373ffffffffffffffffffffffffffffffffffffffff160217905550600192505050611aa1565b60158260ff161480611a27575060158160ff16145b15611a9a57600360009054906101000a900473ffffffffffffffffffffffffffffffffffffffff16600560006101000a81548173ffffffffffffffffffffffffffffffffffffffff021916908373ffffffffffffffffffffffffffffffffffffffff160217905550600192505050611aa1565b6000925050505b9056fea165627a7a72305820e4238737676b7c637c7b3d186802e5dd7ed5c365d2e03eb41b67e4f5592c5ee70029a165627a7a723058201070ba71845305b3ddb59c4d55d5a1190e60cf1714cea4741cc1105a1efe7a050029",
  "source": "pragma solidity 0.5.0;\n\nimport './TiCtAcToE.sol';\nimport \"./Player.sol\";\n\ncontract GameManager\n{\n    address owner;\n    mapping(address => address) public players;\n    address[] public games;\n    address recentCreatedGame;\n\n    // TODO mapping (address => uint8)\n\n    event playerJoinedGame(address gameAddress);\n\n    constructor() public {\n        owner = msg.sender;\n\n    }\n    modifier olyOwner(){\n        require(msg.sender == owner, \"only for owner \" );\n        _;\n\n    }\n\n    function askForGame() public view returns (address[] memory){\n        return games;\n    }\n\n    function createGame() internal returns (TiCtAcToE){\n        TiCtAcToE gameNew;\n        gameNew = new TiCtAcToE();\n        games.push(address(gameNew));\n        return gameNew;\n    }\n\n    function createPlayer(address user,  string memory nickName) internal returns (Player){\n        Player player;\n        player = new Player(nickName, address(this), user);\n        players[user] = address(player) ;\n        return player;\n    }\n\n    function isPlayer(address user) public returns(bool){\n        require(user != address(0));\n\n        players[user];\n        return (players[user] != address(0) ) ;\n    }\n\n\n\n    function joinGame(string memory nickName) public payable {\n//        require(msg.value >= 0.04 ether, 'Please pay some value to join game' );\n\n        Player player;\n        TiCtAcToE gameContract;\n        if(!isPlayer(msg.sender)){\n            player = createPlayer(msg.sender , nickName);\n        }\n\n        if (recentCreatedGame == address(0)) {\n            gameContract = createGame();\n\n        } else {\n            gameContract = TiCtAcToE(recentCreatedGame);\n            recentCreatedGame = address(0);\n        }\n\n        gameContract.setUser(msg.sender);\n        emit playerJoinedGame(address(gameContract));\n\n    }\n\n    function closeGame(address gameForClose)olyOwner public {\n        TiCtAcToE(gameForClose).closeTable();\n\n    }\n\n\n\n\n\n}\n",
  "sourcePath": "/Users/giser/develop/BA/GameManeger/contracts/GameManager.sol",
  "compiler": {
    "name": "solc",
    "version": "0.5.0+commit.1d4f565a.Emscripten.clang"
  },
  "schemaVersion": "3.0.1",
  "updatedAt": "2019-03-02T12:49:39.114Z",
  "devdoc": {
    "methods": {}
  },
  "userdoc": {
    "methods": {}
  }
}