{
  "contractName": "Player",
  "abi": [
    {
      "constant": true,
      "inputs": [],
      "name": "wins",
      "outputs": [
        {
          "name": "",
          "type": "uint256"
        }
      ],
      "payable": false,
      "stateMutability": "view",
      "type": "function"
    },
    {
      "constant": true,
      "inputs": [],
      "name": "loses",
      "outputs": [
        {
          "name": "",
          "type": "uint256"
        }
      ],
      "payable": false,
      "stateMutability": "view",
      "type": "function"
    },
    {
      "constant": true,
      "inputs": [],
      "name": "recentCreatedGame",
      "outputs": [
        {
          "name": "",
          "type": "address"
        }
      ],
      "payable": false,
      "stateMutability": "view",
      "type": "function"
    },
    {
      "constant": true,
      "inputs": [],
      "name": "nickName",
      "outputs": [
        {
          "name": "",
          "type": "string"
        }
      ],
      "payable": false,
      "stateMutability": "view",
      "type": "function"
    },
    {
      "constant": true,
      "inputs": [],
      "name": "gm",
      "outputs": [
        {
          "name": "",
          "type": "address"
        }
      ],
      "payable": false,
      "stateMutability": "view",
      "type": "function"
    },
    {
      "inputs": [
        {
          "name": "name",
          "type": "string"
        },
        {
          "name": "_gm",
          "type": "address"
        },
        {
          "name": "owner",
          "type": "address"
        }
      ],
      "payable": false,
      "stateMutability": "nonpayable",
      "type": "constructor"
    },
    {
      "constant": false,
      "inputs": [],
      "name": "incWins",
      "outputs": [],
      "payable": false,
      "stateMutability": "nonpayable",
      "type": "function"
    },
    {
      "constant": false,
      "inputs": [],
      "name": "incLosses",
      "outputs": [],
      "payable": false,
      "stateMutability": "nonpayable",
      "type": "function"
    },
    {
      "constant": false,
      "inputs": [
        {
          "name": "gameAddress",
          "type": "address"
        }
      ],
      "name": "setLatestGame",
      "outputs": [],
      "payable": false,
      "stateMutability": "nonpayable",
      "type": "function"
    }
  ],
  "bytecode": "0x608060405234801561001057600080fd5b506040516108673803806108678339810180604052606081101561003357600080fd5b81019080805164010000000081111561004b57600080fd5b8281019050602081018481111561006157600080fd5b815185600182028301116401000000008211171561007e57600080fd5b50509291906020018051906020019092919080519060200190929190505050600460009054906101000a900473ffffffffffffffffffffffffffffffffffffffff16905082600290805190602001906100d8929190610131565b5060008081905550600060018190555081600560006101000a81548173ffffffffffffffffffffffffffffffffffffffff021916908373ffffffffffffffffffffffffffffffffffffffff1602179055505050506101d6565b828054600181600116156101000203166002900490600052602060002090601f016020900481019282601f1061017257805160ff19168380011785556101a0565b828001600101855582156101a0579182015b8281111561019f578251825591602001919060010190610184565b5b5090506101ad91906101b1565b5090565b6101d391905b808211156101cf5760008160009055506001016101b7565b5090565b90565b610682806101e56000396000f3fe60806040526004361061008e576000357c0100000000000000000000000000000000000000000000000000000000900463ffffffff16806324de908d14610093578063347ee05e146100be578063452e038d146100d55780635042c9af14610100578063859340be146101515780639c051e43146101a8578063c0129d4314610238578063cb5cb08f1461028f575b600080fd5b34801561009f57600080fd5b506100a86102a6565b6040518082815260200191505060405180910390f35b3480156100ca57600080fd5b506100d36102ac565b005b3480156100e157600080fd5b506100ea610385565b6040518082815260200191505060405180910390f35b34801561010c57600080fd5b5061014f6004803603602081101561012357600080fd5b81019080803573ffffffffffffffffffffffffffffffffffffffff16906020019092919050505061038b565b005b34801561015d57600080fd5b50610166610494565b604051808273ffffffffffffffffffffffffffffffffffffffff1673ffffffffffffffffffffffffffffffffffffffff16815260200191505060405180910390f35b3480156101b457600080fd5b506101bd6104ba565b6040518080602001828103825283818151815260200191508051906020019080838360005b838110156101fd5780820151818401526020810190506101e2565b50505050905090810190601f16801561022a5780820380516001836020036101000a031916815260200191505b509250505060405180910390f35b34801561024457600080fd5b5061024d610558565b604051808273ffffffffffffffffffffffffffffffffffffffff1673ffffffffffffffffffffffffffffffffffffffff16815260200191505060405180910390f35b34801561029b57600080fd5b506102a461057e565b005b60005481565b600360009054906101000a900473ffffffffffffffffffffffffffffffffffffffff1673ffffffffffffffffffffffffffffffffffffffff163373ffffffffffffffffffffffffffffffffffffffff16141515610371576040517f08c379a00000000000000000000000000000000000000000000000000000000081526004018080602001828103825260168152602001807f4f6e6c792067616d652063616e2075736520746861740000000000000000000081525060200191505060405180910390fd5b600160008154809291906001019190505550565b60015481565b600560009054906101000a900473ffffffffffffffffffffffffffffffffffffffff1673ffffffffffffffffffffffffffffffffffffffff163373ffffffffffffffffffffffffffffffffffffffff16141515610450576040517f08c379a000000000000000000000000000000000000000000000000000000000815260040180806020018281038252601e8152602001807f4f6e6c792067616d65206d616e616765722063616e207573652074686174000081525060200191505060405180910390fd5b80600360006101000a81548173ffffffffffffffffffffffffffffffffffffffff021916908373ffffffffffffffffffffffffffffffffffffffff16021790555050565b600360009054906101000a900473ffffffffffffffffffffffffffffffffffffffff1681565b60028054600181600116156101000203166002900480601f0160208091040260200160405190810160405280929190818152602001828054600181600116156101000203166002900480156105505780601f1061052557610100808354040283529160200191610550565b820191906000526020600020905b81548152906001019060200180831161053357829003601f168201915b505050505081565b600560009054906101000a900473ffffffffffffffffffffffffffffffffffffffff1681565b600360009054906101000a900473ffffffffffffffffffffffffffffffffffffffff1673ffffffffffffffffffffffffffffffffffffffff163373ffffffffffffffffffffffffffffffffffffffff16141515610643576040517f08c379a00000000000000000000000000000000000000000000000000000000081526004018080602001828103825260168152602001807f4f6e6c792067616d652063616e2075736520746861740000000000000000000081525060200191505060405180910390fd5b600080815480929190600101919050555056fea165627a7a72305820dbf17aba639c0c3cf5dd6ac7c549cd5406d75d3661635becf12cf10b04cc1cc30029",
  "source": "pragma solidity 0.5.0;\n\nimport './TiCtAcToE.sol';\n\ncontract Player\n{\n    uint256 public wins;\n    uint256 public loses;\n    string public nickName;\n    address public recentCreatedGame;\n    address playerOwner;\n    address public gm;\n\n    constructor(string memory name, address _gm, address owner) public {\n        owner = playerOwner;\n        nickName  = name;\n        wins = 0;\n        loses = 0;\n        gm = _gm;\n    }\n\n\n    modifier onlyGame() {\n        require(msg.sender == recentCreatedGame, \"Only game can use that\");\n        _;\n    }\n\n    modifier onlyGameManager() {\n        require(msg.sender == gm, \"Only game manager can use that\");\n        _;\n    }\n\n\n    function incWins() public onlyGame{\n        wins++;\n    }\n    function incLosses() public onlyGame{\n        loses++;\n    }\n\n    function setLatestGame(address gameAddress) public onlyGameManager{\n        recentCreatedGame = gameAddress;\n    }\n}\n",
  "sourcePath": "/Users/giser/develop/BA/GameManeger/contracts/Player.sol",
  "compiler": {
    "name": "solc",
    "version": "0.5.0+commit.1d4f565a.Emscripten.clang"
  },
  "schemaVersion": "3.0.1",
  "updatedAt": "2019-03-02T12:49:39.110Z",
  "devdoc": {
    "methods": {}
  },
  "userdoc": {
    "methods": {}
  }
}