{
  "contractName": "Player",
  "abi": [
    {
      "constant": true,
      "inputs": [],
      "name": "wins",
      "outputs": [
        {
          "name": "",
          "type": "uint256"
        }
      ],
      "payable": false,
      "stateMutability": "view",
      "type": "function"
    },
    {
      "constant": true,
      "inputs": [],
      "name": "loses",
      "outputs": [
        {
          "name": "",
          "type": "uint256"
        }
      ],
      "payable": false,
      "stateMutability": "view",
      "type": "function"
    },
    {
      "constant": true,
      "inputs": [],
      "name": "nickName",
      "outputs": [
        {
          "name": "",
          "type": "string"
        }
      ],
      "payable": false,
      "stateMutability": "view",
      "type": "function"
    },
    {
      "inputs": [
        {
          "name": "name",
          "type": "string"
        },
        {
          "name": "gm",
          "type": "address"
        },
        {
          "name": "owner",
          "type": "address"
        }
      ],
      "payable": false,
      "stateMutability": "nonpayable",
      "type": "constructor"
    },
    {
      "constant": false,
      "inputs": [],
      "name": "incWins",
      "outputs": [],
      "payable": false,
      "stateMutability": "nonpayable",
      "type": "function"
    },
    {
      "constant": false,
      "inputs": [],
      "name": "incLosses",
      "outputs": [],
      "payable": false,
      "stateMutability": "nonpayable",
      "type": "function"
    },
    {
      "constant": false,
      "inputs": [
        {
          "name": "gameAddress",
          "type": "address"
        }
      ],
      "name": "setLatestGame",
      "outputs": [],
      "payable": false,
      "stateMutability": "nonpayable",
      "type": "function"
    }
  ],
  "bytecode": "0x608060405234801561001057600080fd5b506040516107573803806107578339810180604052606081101561003357600080fd5b81019080805164010000000081111561004b57600080fd5b8281019050602081018481111561006157600080fd5b815185600182028301116401000000008211171561007e57600080fd5b50509291906020018051906020019092919080519060200190929190505050600460009054906101000a900473ffffffffffffffffffffffffffffffffffffffff16905082600290805190602001906100d8929190610131565b5060008081905550600060018190555081600560006101000a81548173ffffffffffffffffffffffffffffffffffffffff021916908373ffffffffffffffffffffffffffffffffffffffff1602179055505050506101d6565b828054600181600116156101000203166002900490600052602060002090601f016020900481019282601f1061017257805160ff19168380011785556101a0565b828001600101855582156101a0579182015b8281111561019f578251825591602001919060010190610184565b5b5090506101ad91906101b1565b5090565b6101d391905b808211156101cf5760008160009055506001016101b7565b5090565b90565b610572806101e56000396000f3fe608060405260043610610078576000357c0100000000000000000000000000000000000000000000000000000000900463ffffffff16806324de908d1461007d578063347ee05e146100a8578063452e038d146100bf5780635042c9af146100ea5780639c051e431461013b578063cb5cb08f146101cb575b600080fd5b34801561008957600080fd5b506100926101e2565b6040518082815260200191505060405180910390f35b3480156100b457600080fd5b506100bd6101e8565b005b3480156100cb57600080fd5b506100d46102c1565b6040518082815260200191505060405180910390f35b3480156100f657600080fd5b506101396004803603602081101561010d57600080fd5b81019080803573ffffffffffffffffffffffffffffffffffffffff1690602001909291905050506102c7565b005b34801561014757600080fd5b506101506103d0565b6040518080602001828103825283818151815260200191508051906020019080838360005b83811015610190578082015181840152602081019050610175565b50505050905090810190601f1680156101bd5780820380516001836020036101000a031916815260200191505b509250505060405180910390f35b3480156101d757600080fd5b506101e061046e565b005b60005481565b600360009054906101000a900473ffffffffffffffffffffffffffffffffffffffff1673ffffffffffffffffffffffffffffffffffffffff163373ffffffffffffffffffffffffffffffffffffffff161415156102ad576040517f08c379a00000000000000000000000000000000000000000000000000000000081526004018080602001828103825260168152602001807f4f6e6c792067616d652063616e2075736520746861740000000000000000000081525060200191505060405180910390fd5b600160008154809291906001019190505550565b60015481565b600560009054906101000a900473ffffffffffffffffffffffffffffffffffffffff1673ffffffffffffffffffffffffffffffffffffffff163373ffffffffffffffffffffffffffffffffffffffff1614151561038c576040517f08c379a000000000000000000000000000000000000000000000000000000000815260040180806020018281038252601e8152602001807f4f6e6c792067616d65206d616e616765722063616e207573652074686174000081525060200191505060405180910390fd5b80600360006101000a81548173ffffffffffffffffffffffffffffffffffffffff021916908373ffffffffffffffffffffffffffffffffffffffff16021790555050565b60028054600181600116156101000203166002900480601f0160208091040260200160405190810160405280929190818152602001828054600181600116156101000203166002900480156104665780601f1061043b57610100808354040283529160200191610466565b820191906000526020600020905b81548152906001019060200180831161044957829003601f168201915b505050505081565b600360009054906101000a900473ffffffffffffffffffffffffffffffffffffffff1673ffffffffffffffffffffffffffffffffffffffff163373ffffffffffffffffffffffffffffffffffffffff16141515610533576040517f08c379a00000000000000000000000000000000000000000000000000000000081526004018080602001828103825260168152602001807f4f6e6c792067616d652063616e2075736520746861740000000000000000000081525060200191505060405180910390fd5b600080815480929190600101919050555056fea165627a7a72305820a9c9e1181d086d80fe637e3c39ff978c69994a90a0fedfea6db1aede5d9aa7ae0029",
  "source": "pragma solidity 0.5.0;\n\nimport './TiCtAcToE.sol';\n\ncontract Player\n{\n    uint256 public wins;\n    uint256 public loses;\n    string public nickName;\n    address recentCreatedGame;\n    address playerOwner;\n    address _gm;\n\n    constructor(string memory name, address gm, address owner) public {\n        owner = playerOwner;\n        nickName  = name;\n        wins = 0;\n        loses = 0;\n        _gm = gm;\n    }\n\n\n    modifier onlyGame() {\n        require(msg.sender == recentCreatedGame, \"Only game can use that\");\n        _;\n    }\n\n    modifier onlyGameManager() {\n        require(msg.sender == _gm, \"Only game manager can use that\");\n        _;\n    }\n\n\n    function incWins() public onlyGame{\n        wins++;\n    }\n    function incLosses() public onlyGame{\n        loses++;\n    }\n\n    function setLatestGame(address gameAddress) public onlyGameManager{\n        recentCreatedGame = gameAddress;\n    }\n}\n",
  "sourcePath": "/Users/giser/develop/BA/GameManeger/contracts/Player.sol",
  "compiler": {
    "name": "solc",
    "version": "0.5.0+commit.1d4f565a.Emscripten.clang"
  },
  "schemaVersion": "3.0.1",
  "updatedAt": "2019-03-02T10:33:01.228Z",
  "devdoc": {
    "methods": {}
  },
  "userdoc": {
    "methods": {}
  }
}