{
  "contractName": "TiCtAcToE",
  "abi": [
    {
      "constant": true,
      "inputs": [],
      "name": "player2",
      "outputs": [
        {
          "name": "",
          "type": "address"
        }
      ],
      "payable": false,
      "stateMutability": "view",
      "type": "function"
    },
    {
      "constant": true,
      "inputs": [
        {
          "name": "",
          "type": "uint256"
        },
        {
          "name": "",
          "type": "uint256"
        }
      ],
      "name": "board",
      "outputs": [
        {
          "name": "",
          "type": "uint8"
        }
      ],
      "payable": false,
      "stateMutability": "view",
      "type": "function"
    },
    {
      "constant": true,
      "inputs": [],
      "name": "lastTime",
      "outputs": [
        {
          "name": "",
          "type": "uint256"
        }
      ],
      "payable": false,
      "stateMutability": "view",
      "type": "function"
    },
    {
      "constant": true,
      "inputs": [],
      "name": "activeUser",
      "outputs": [
        {
          "name": "",
          "type": "address"
        }
      ],
      "payable": false,
      "stateMutability": "view",
      "type": "function"
    },
    {
      "constant": true,
      "inputs": [],
      "name": "isReady",
      "outputs": [
        {
          "name": "",
          "type": "bool"
        }
      ],
      "payable": false,
      "stateMutability": "view",
      "type": "function"
    },
    {
      "constant": true,
      "inputs": [],
      "name": "gm",
      "outputs": [
        {
          "name": "",
          "type": "address"
        }
      ],
      "payable": false,
      "stateMutability": "view",
      "type": "function"
    },
    {
      "constant": true,
      "inputs": [],
      "name": "player1",
      "outputs": [
        {
          "name": "",
          "type": "address"
        }
      ],
      "payable": false,
      "stateMutability": "view",
      "type": "function"
    },
    {
      "constant": true,
      "inputs": [],
      "name": "",
      "outputs": [
        {
          "name": "",
          "type": "address"
        }
      ],
      "payable": false,
      "stateMutability": "view",
      "type": "function"
    },
    {
      "inputs": [],
      "payable": false,
      "stateMutability": "nonpayable",
      "type": "constructor"
    },
    {
      "constant": false,
      "inputs": [
        {
          "name": "user",
          "type": "address"
        }
      ],
      "name": "setUser",
      "outputs": [],
      "payable": false,
      "stateMutability": "nonpayable",
      "type": "function"
    },
    {
      "constant": false,
      "inputs": [
        {
          "name": "col",
          "type": "uint8"
        },
        {
          "name": "row",
          "type": "uint8"
        }
      ],
      "name": "move",
      "outputs": [],
      "payable": false,
      "stateMutability": "nonpayable",
      "type": "function"
    },
    {
      "constant": false,
      "inputs": [],
      "name": "closeTable",
      "outputs": [],
      "payable": false,
      "stateMutability": "nonpayable",
      "type": "function"
    },
    {
      "constant": false,
      "inputs": [],
      "name": "checkTime",
      "outputs": [],
      "payable": false,
      "stateMutability": "nonpayable",
      "type": "function"
    }
  ],
  "bytecode": "0x60806040526000600560006101000a81548173ffffffffffffffffffffffffffffffffffffffff021916908373ffffffffffffffffffffffffffffffffffffffff1602179055503480156200005357600080fd5b5033600160006101000a81548173ffffffffffffffffffffffffffffffffffffffff021916908373ffffffffffffffffffffffffffffffffffffffff1602179055506001600060016101000a81548160ff02191690831515021790555060096000806101000a81548160ff021916908360ff160217905550620000e4620000ea640100000000026401000000009004565b6200048e565b60036040519080825280602002602001820160405280156200012157816020015b60608152602001906001900390816200010b5790505b50600490805190602001906200013992919062000215565b5060008090505b60038160ff161015620002125760606003604051908082528060200260200182016040528015620001805781602001602082028038833980820191505090505b50905060008090505b60038160ff161015620001ce576000828260ff16815181101515620001aa57fe5b9060200190602002019060ff16908160ff1681525050808060010191505062000189565b508060048360ff16815481101515620001e357fe5b906000526020600020019080519060200190620002029291906200027c565b5050808060010191505062000140565b50565b82805482825590600052602060002090810192821562000269579160200282015b8281111562000268578251829080519060200190620002579291906200032a565b509160200191906001019062000236565b5b509050620002789190620003d8565b5090565b82805482825590600052602060002090601f01602090048101928215620003175791602002820160005b83821115620002e657835183826101000a81548160ff021916908360ff1602179055509260200192600101602081600001049283019260010302620002a6565b8015620003155782816101000a81549060ff0219169055600101602081600001049283019260010302620002e6565b505b50905062000326919062000409565b5090565b82805482825590600052602060002090601f01602090048101928215620003c55791602002820160005b838211156200039457835183826101000a81548160ff021916908360ff160217905550926020019260010160208160000104928301926001030262000354565b8015620003c35782816101000a81549060ff021916905560010160208160000104928301926001030262000394565b505b509050620003d4919062000409565b5090565b6200040691905b80821115620004025760008181620003f891906200043c565b50600101620003df565b5090565b90565b6200043991905b808211156200043557600081816101000a81549060ff02191690555060010162000410565b5090565b90565b50805460008255601f01602090049060005260206000209081019062000463919062000466565b50565b6200048b91905b80821115620004875760008160009055506001016200046d565b5090565b90565b6118f4806200049e6000396000f3fe6080604052600436106100ba576000357c0100000000000000000000000000000000000000000000000000000000900463ffffffff16806359a5f12d146100bf57806364953b9314610116578063701bd9851461012d5780638086a92a14610178578063858ced35146101d757806393e9a084146102285780639573111214610253578063a094a031146102aa578063c0129d43146102d9578063d30895e414610330578063dfbf53ae14610387578063e0c6190d146103de575b600080fd5b3480156100cb57600080fd5b506100d46103f5565b604051808273ffffffffffffffffffffffffffffffffffffffff1673ffffffffffffffffffffffffffffffffffffffff16815260200191505060405180910390f35b34801561012257600080fd5b5061012b61041b565b005b34801561013957600080fd5b506101766004803603604081101561015057600080fd5b81019080803560ff169060200190929190803560ff1690602001909291905050506105ac565b005b34801561018457600080fd5b506101bb6004803603604081101561019b57600080fd5b810190808035906020019092919080359060200190929190505050610cec565b604051808260ff1660ff16815260200191505060405180910390f35b3480156101e357600080fd5b50610226600480360360208110156101fa57600080fd5b81019080803573ffffffffffffffffffffffffffffffffffffffff169060200190929190505050610d39565b005b34801561023457600080fd5b5061023d6110a7565b6040518082815260200191505060405180910390f35b34801561025f57600080fd5b506102686110ad565b604051808273ffffffffffffffffffffffffffffffffffffffff1673ffffffffffffffffffffffffffffffffffffffff16815260200191505060405180910390f35b3480156102b657600080fd5b506102bf6110d3565b604051808215151515815260200191505060405180910390f35b3480156102e557600080fd5b506102ee6110e6565b604051808273ffffffffffffffffffffffffffffffffffffffff1673ffffffffffffffffffffffffffffffffffffffff16815260200191505060405180910390f35b34801561033c57600080fd5b5061034561110c565b604051808273ffffffffffffffffffffffffffffffffffffffff1673ffffffffffffffffffffffffffffffffffffffff16815260200191505060405180910390f35b34801561039357600080fd5b5061039c611132565b604051808273ffffffffffffffffffffffffffffffffffffffff1673ffffffffffffffffffffffffffffffffffffffff16815260200191505060405180910390f35b3480156103ea57600080fd5b506103f3611158565b005b600360009054906101000a900473ffffffffffffffffffffffffffffffffffffffff1681565b600260009054906101000a900473ffffffffffffffffffffffffffffffffffffffff1673ffffffffffffffffffffffffffffffffffffffff16600560009054906101000a900473ffffffffffffffffffffffffffffffffffffffff1673ffffffffffffffffffffffffffffffffffffffff1614156104e057600360009054906101000a900473ffffffffffffffffffffffffffffffffffffffff1673ffffffffffffffffffffffffffffffffffffffff16600560009054906101000a905050506105a2565b600360009054906101000a900473ffffffffffffffffffffffffffffffffffffffff1673ffffffffffffffffffffffffffffffffffffffff16600560009054906101000a900473ffffffffffffffffffffffffffffffffffffffff1673ffffffffffffffffffffffffffffffffffffffff1614156105a157600260009054906101000a900473ffffffffffffffffffffffffffffffffffffffff1673ffffffffffffffffffffffffffffffffffffffff16600560009054906101000a905050505b5b6105aa611171565b565b600060029054906101000a900473ffffffffffffffffffffffffffffffffffffffff1673ffffffffffffffffffffffffffffffffffffffff163373ffffffffffffffffffffffffffffffffffffffff16141515610671576040517f08c379a00000000000000000000000000000000000000000000000000000000081526004018080602001828103825260208152602001807f4f6e6c792061637469766520757365722063616e206d616b652061206d6f766581525060200191505060405180910390fd5b60001515600060019054906101000a900460ff1615151415156106fc576040517f08c379a00000000000000000000000000000000000000000000000000000000081526004018080602001828103825260118152602001807f67616d65206973206e6f7420726561647900000000000000000000000000000081525060200191505060405180910390fd5b600073ffffffffffffffffffffffffffffffffffffffff16600560009054906101000a900473ffffffffffffffffffffffffffffffffffffffff1673ffffffffffffffffffffffffffffffffffffffff161415156107c2576040517f08c379a00000000000000000000000000000000000000000000000000000000081526004018080602001828103825260128152602001807f57696e6e657220697320736574206e6f7720000000000000000000000000000081525060200191505060405180910390fd5b60008060009054906101000a900460ff1660ff1611151561084b576040517f08c379a00000000000000000000000000000000000000000000000000000000081526004018080602001828103825260168152602001807f7468657265206973206e6f206d6f766573206c6566740000000000000000000081525060200191505060405180910390fd5b60038160ff16108015610861575060038260ff16105b15156108d5576040517f08c379a000000000000000000000000000000000000000000000000000000000815260040180806020018281038252600c8152602001807f696c6c6567616c206d6f7665000000000000000000000000000000000000000081525060200191505060405180910390fd5b600060048360ff168154811015156108e957fe5b906000526020600020018260ff1681548110151561090357fe5b90600052602060002090602091828204019190069054906101000a900460ff1660ff161415156109c1576040517f08c379a000000000000000000000000000000000000000000000000000000000815260040180806020018281038252602a8152602001807f7468652063656c6c20697320616c7265616479207573656420627920616e6f7481526020017f68657220706c617965720000000000000000000000000000000000000000000081525060400191505060405180910390fd5b4260068190555060016000809054906101000a900460ff16036000806101000a81548160ff021916908360ff160217905550600260009054906101000a900473ffffffffffffffffffffffffffffffffffffffff1673ffffffffffffffffffffffffffffffffffffffff163373ffffffffffffffffffffffffffffffffffffffff161415610b5657600160048360ff16815481101515610a5d57fe5b906000526020600020018260ff16815481101515610a7757fe5b90600052602060002090602091828204019190069054906101000a900460ff160160048360ff16815481101515610aaa57fe5b906000526020600020018260ff16815481101515610ac457fe5b90600052602060002090602091828204019190066101000a81548160ff021916908360ff160217905550600360009054906101000a900473ffffffffffffffffffffffffffffffffffffffff16600060026101000a81548173ffffffffffffffffffffffffffffffffffffffff021916908373ffffffffffffffffffffffffffffffffffffffff160217905550610cb6565b600360009054906101000a900473ffffffffffffffffffffffffffffffffffffffff1673ffffffffffffffffffffffffffffffffffffffff163373ffffffffffffffffffffffffffffffffffffffff161415610cb557600760048360ff16815481101515610bc057fe5b906000526020600020018260ff16815481101515610bda57fe5b90600052602060002090602091828204019190069054906101000a900460ff160160048360ff16815481101515610c0d57fe5b906000526020600020018260ff16815481101515610c2757fe5b90600052602060002090602091828204019190066101000a81548160ff021916908360ff160217905550600260009054906101000a900473ffffffffffffffffffffffffffffffffffffffff16600060026101000a81548173ffffffffffffffffffffffffffffffffffffffff021916908373ffffffffffffffffffffffffffffffffffffffff1602179055505b5b610cbe6114e2565b80610cda575060008060009054906101000a900460ff1660ff16145b15610ce857610ce7611171565b5b5050565b600482815481101515610cfb57fe5b9060005260206000200181815481101515610d1257fe5b9060005260206000209060209182820401919006915091509054906101000a900460ff1681565b600073ffffffffffffffffffffffffffffffffffffffff16600260009054906101000a900473ffffffffffffffffffffffffffffffffffffffff1673ffffffffffffffffffffffffffffffffffffffff161480610de45750600073ffffffffffffffffffffffffffffffffffffffff16600360009054906101000a900473ffffffffffffffffffffffffffffffffffffffff1673ffffffffffffffffffffffffffffffffffffffff16145b1515610e58576040517f08c379a000000000000000000000000000000000000000000000000000000000815260040180806020018281038252601b8152602001807f74776f20706c61796572732061726520696e207468652067616d65000000000081525060200191505060405180910390fd5b600073ffffffffffffffffffffffffffffffffffffffff16600260009054906101000a900473ffffffffffffffffffffffffffffffffffffffff1673ffffffffffffffffffffffffffffffffffffffff161415610ef55780600260006101000a81548173ffffffffffffffffffffffffffffffffffffffff021916908373ffffffffffffffffffffffffffffffffffffffff1602179055506110a4565b600073ffffffffffffffffffffffffffffffffffffffff16600360009054906101000a900473ffffffffffffffffffffffffffffffffffffffff1673ffffffffffffffffffffffffffffffffffffffff1614156110a35780600360006101000a81548173ffffffffffffffffffffffffffffffffffffffff021916908373ffffffffffffffffffffffffffffffffffffffff160217905550600360009054906101000a900473ffffffffffffffffffffffffffffffffffffffff16600060026101000a81548173ffffffffffffffffffffffffffffffffffffffff021916908373ffffffffffffffffffffffffffffffffffffffff16021790555060008060016101000a81548160ff02191690831515021790555060008090505b60038160ff1610156110a15760008090505b60038160ff16101561109357600060048360ff1681548110151561104257fe5b906000526020600020018260ff1681548110151561105c57fe5b90600052602060002090602091828204019190066101000a81548160ff021916908360ff1602179055508080600101915050611022565b508080600101915050611010565b505b5b50565b60065481565b600060029054906101000a900473ffffffffffffffffffffffffffffffffffffffff1681565b600060019054906101000a900460ff1681565b600160009054906101000a900473ffffffffffffffffffffffffffffffffffffffff1681565b600260009054906101000a900473ffffffffffffffffffffffffffffffffffffffff1681565b600560009054906101000a900473ffffffffffffffffffffffffffffffffffffffff1681565b603c600654420310151561116f5761116e61041b565b5b565b600260009054906101000a900473ffffffffffffffffffffffffffffffffffffffff1673ffffffffffffffffffffffffffffffffffffffff16600560009054906101000a900473ffffffffffffffffffffffffffffffffffffffff1673ffffffffffffffffffffffffffffffffffffffff16141561132a57600260009054906101000a900473ffffffffffffffffffffffffffffffffffffffff1673ffffffffffffffffffffffffffffffffffffffff1663cb5cb08f6040518163ffffffff167c0100000000000000000000000000000000000000000000000000000000028152600401600060405180830381600087803b15801561126f57600080fd5b505af1158015611283573d6000803e3d6000fd5b50505050600360009054906101000a900473ffffffffffffffffffffffffffffffffffffffff1673ffffffffffffffffffffffffffffffffffffffff1663347ee05e6040518163ffffffff167c0100000000000000000000000000000000000000000000000000000000028152600401600060405180830381600087803b15801561130d57600080fd5b505af1158015611321573d6000803e3d6000fd5b505050506114e0565b600360009054906101000a900473ffffffffffffffffffffffffffffffffffffffff1673ffffffffffffffffffffffffffffffffffffffff16600560009054906101000a900473ffffffffffffffffffffffffffffffffffffffff1673ffffffffffffffffffffffffffffffffffffffff1614156114df57600360009054906101000a900473ffffffffffffffffffffffffffffffffffffffff1673ffffffffffffffffffffffffffffffffffffffff1663cb5cb08f6040518163ffffffff167c0100000000000000000000000000000000000000000000000000000000028152600401600060405180830381600087803b15801561142857600080fd5b505af115801561143c573d6000803e3d6000fd5b50505050600260009054906101000a900473ffffffffffffffffffffffffffffffffffffffff1673ffffffffffffffffffffffffffffffffffffffff1663347ee05e6040518163ffffffff167c0100000000000000000000000000000000000000000000000000000000028152600401600060405180830381600087803b1580156114c657600080fd5b505af11580156114da573d6000803e3d6000fd5b505050505b5b565b60008060009050600080905060008090505b60038160ff1610156117ad576000809050600080905060008090505b60038160ff1610156116875760048460ff1681548110151561152e57fe5b906000526020600020018160ff1681548110151561154857fe5b90600052602060002090602091828204019190069054906101000a900460ff168301925060048160ff1681548110151561157e57fe5b906000526020600020018460ff1681548110151561159857fe5b90600052602060002090602091828204019190069054906101000a900460ff16820191508060ff168460ff16141561161b5760048460ff168154811015156115dc57fe5b906000526020600020018460ff168154811015156115f657fe5b90600052602060002090602091828204019190069054906101000a900460ff16860195505b600281850160ff16141561167a5760048160ff1681548110151561163b57fe5b906000526020600020018460ff1681548110151561165557fe5b90600052602060002090602091828204019190069054906101000a900460ff16850194505b8080600101915050611510565b5060038260ff16148061169d575060038160ff16145b1561171357600260009054906101000a900473ffffffffffffffffffffffffffffffffffffffff16600560006101000a81548173ffffffffffffffffffffffffffffffffffffffff021916908373ffffffffffffffffffffffffffffffffffffffff1602179055506001955050505050506118c5565b60158260ff161480611728575060158160ff16145b1561179e57600360009054906101000a900473ffffffffffffffffffffffffffffffffffffffff16600560006101000a81548173ffffffffffffffffffffffffffffffffffffffff021916908373ffffffffffffffffffffffffffffffffffffffff1602179055506001955050505050506118c5565b505080806001019150506114f4565b5060038260ff1614806117c3575060038160ff16145b1561183657600260009054906101000a900473ffffffffffffffffffffffffffffffffffffffff16600560006101000a81548173ffffffffffffffffffffffffffffffffffffffff021916908373ffffffffffffffffffffffffffffffffffffffff1602179055506001925050506118c5565b60158260ff16148061184b575060158160ff16145b156118be57600360009054906101000a900473ffffffffffffffffffffffffffffffffffffffff16600560006101000a81548173ffffffffffffffffffffffffffffffffffffffff021916908373ffffffffffffffffffffffffffffffffffffffff1602179055506001925050506118c5565b6000925050505b9056fea165627a7a72305820e2c59c8d5d1698a985ee612d524e5af8f64566dda22c74f194af2dc13d2169f30029",
  "source": "pragma solidity 0.5.0;\nimport './Player.sol';\n\ncontract TiCtAcToE\n{\n    uint8 leftMoves;\n    bool public  isReady;\n    address public activeUser;\n    address public gm;\n    address public player1; // 1 = o\n    address public player2; // 7 = x\n    uint8[][] public board;\n    address public winner = address(0);\n    uint256 public lastTime;\n\n    constructor() public {\n        gm = msg.sender;\n        isReady = true;\n        leftMoves = 9;\n        initArray();\n    }\n\n    modifier onlyActiveUser() {\n        require(msg.sender == activeUser, \"Only active user can make a move\");\n        _;\n    }\n    modifier onlyGameManager() {\n        require(msg.sender == gm, \"Only active gm can make a move\");\n        _;\n    }\n\n    function initArray() internal  {\n        board = new uint8[][](3);\n        for (uint8 i = 0; i < 3; i++) {\n            uint8[] memory temp = new uint8[](3);\n            for(uint8 j = 0; j < 3; j++){\n                temp[j] = 0;\n            }\n            board[i] = temp;\n        }\n    }\n\n    function setUser(address user) public{\n        require(\n            player1 == address(0) ||\n            player2 == address(0),\n            \"two players are in the game\"\n        );\n\n        if(player1 == address(0)){\n            player1 = user;\n        }else if(player2 == address(0)){\n            player2 = user;\n            activeUser = player2;\n            isReady = false;\n            for(uint8 i = 0; i < 3; i++ ){\n                for(uint8 j = 0; j < 3; j++ ){\n                    board[i][j] = 0;\n                }\n            }\n        }\n    }\n\n    function move(uint8 col, uint8 row) public onlyActiveUser  {\n        require(isReady == false, \"game is not ready\");\n        require(winner == address(0), \"Winner is set now \");\n        require(leftMoves > 0, \"there is no moves left\");\n        require(row < 3 && col < 3, \"illegal move\");\n        require(board[col][row] == 0, \"the cell is already used by another player\");\n\n        lastTime = block.timestamp;\n        leftMoves = leftMoves - 1;\n\n        if(msg.sender == player1 ){\n            board[col][row] = board[col][row] + 1;\n            activeUser = player2;\n\n        } else if(msg.sender == player2) {\n            board[col][row] = board[col][row] + 7;\n            activeUser = player1;\n        }\n\n        if(checkWinner() || leftMoves == 0){\n            reward();\n\n        }\n    }\n\n    function checkWinner() internal returns(bool){\n\n        //[(0,0),(0,1),(0,2)]\n        //[(1,0),(1,1),(1,2)]\n        //[(2,0),(2,1),(2,2)]\n\n        uint8 mainDiagSum = 0;\n        uint8 diagSum = 0;\n        for (uint8 i = 0; i < 3; i++) {\n            uint8 rowSum = 0;\n            uint8 colSum = 0;\n            for(uint8 j = 0; j < 3; j++){\n                rowSum += board[i][j];\n                colSum += board[j][i];\n                if (i == j) {\n                    mainDiagSum = mainDiagSum + board[i][i];\n                }\n                if (i + j == 2) {\n                    diagSum += board[j][i];\n                }\n            }\n            // check rows and columns\n            if (rowSum == 3 || colSum == 3) {\n                winner = player1;\n                return true;\n            } else if (rowSum == 21 || colSum == 21) {\n                winner = player2;\n                return true;\n            }\n        }\n        // check diagonals\n        if (mainDiagSum == 3 || diagSum == 3) {\n            winner = player1;\n            return true;\n        } else if (mainDiagSum == 21 || diagSum == 21) {\n            winner = player2;\n            return true;\n        }\n        return false;\n    }\n\n\n    function reward() internal{\n\n        if(winner == player1){\n            Player(player1).incWins();\n            Player(player2).incLosses();\n        }else if(winner == player2){\n            Player(player2).incWins();\n            Player(player1).incLosses();\n        }\n    }\n    function closeTable() public{\n        if(winner == player1){\n            winner == player2;\n        }else if(winner == player2){\n           winner == player1;\n        }\n        reward();\n    }\n\n    function checkTime() public{\n        if(block.timestamp - lastTime >= 60 ){\n            closeTable();\n        }\n\n    }\n\n}\n",
  "sourcePath": "/Users/giser/develop/BA/GameManeger/contracts/TiCtAcToE.sol",
  "compiler": {
    "name": "solc",
    "version": "0.5.0+commit.1d4f565a.Emscripten.clang"
  },
  "schemaVersion": "3.0.1",
  "updatedAt": "2019-03-02T10:33:01.249Z",
  "devdoc": {
    "methods": {}
  },
  "userdoc": {
    "methods": {}
  }
}